{
  "_format": "hh-sol-artifact-1",
  "contractName": "PayPod",
  "sourceName": "contracts/PayPod.sol",
  "abi": [
    {
      "inputs": [
        {
          "internalType": "address[]",
          "name": "controllers",
          "type": "address[]"
        },
        {
          "internalType": "address[]",
          "name": "tokenAddresses",
          "type": "address[]"
        },
        {
          "internalType": "uint256[]",
          "name": "limit",
          "type": "uint256[]"
        },
        {
          "internalType": "uint256",
          "name": "_expirationTime",
          "type": "uint256"
        }
      ],
      "stateMutability": "nonpayable",
      "type": "constructor"
    },
    {
      "anonymous": false,
      "inputs": [
        {
          "indexed": false,
          "internalType": "address",
          "name": "to",
          "type": "address"
        },
        {
          "indexed": false,
          "internalType": "uint256",
          "name": "value",
          "type": "uint256"
        },
        {
          "indexed": false,
          "internalType": "bytes4",
          "name": "data",
          "type": "bytes4"
        }
      ],
      "name": "Call",
      "type": "event"
    },
    {
      "anonymous": false,
      "inputs": [
        {
          "indexed": true,
          "internalType": "address",
          "name": "tokenAddress",
          "type": "address"
        },
        {
          "indexed": true,
          "internalType": "uint256",
          "name": "value",
          "type": "uint256"
        }
      ],
      "name": "Create",
      "type": "event"
    },
    {
      "anonymous": false,
      "inputs": [
        {
          "indexed": true,
          "internalType": "address",
          "name": "previousOwner",
          "type": "address"
        },
        {
          "indexed": true,
          "internalType": "address",
          "name": "newOwner",
          "type": "address"
        }
      ],
      "name": "OwnershipTransferred",
      "type": "event"
    },
    {
      "anonymous": false,
      "inputs": [],
      "name": "Pause",
      "type": "event"
    },
    {
      "anonymous": false,
      "inputs": [
        {
          "indexed": false,
          "internalType": "address",
          "name": "account",
          "type": "address"
        }
      ],
      "name": "Paused",
      "type": "event"
    },
    {
      "anonymous": false,
      "inputs": [
        {
          "indexed": true,
          "internalType": "address",
          "name": "recipient",
          "type": "address"
        },
        {
          "indexed": true,
          "internalType": "uint256",
          "name": "amount",
          "type": "uint256"
        }
      ],
      "name": "Spend",
      "type": "event"
    },
    {
      "anonymous": false,
      "inputs": [
        {
          "indexed": true,
          "internalType": "address",
          "name": "tokenAddress",
          "type": "address"
        },
        {
          "indexed": true,
          "internalType": "address",
          "name": "recipient",
          "type": "address"
        },
        {
          "indexed": true,
          "internalType": "uint256",
          "name": "amount",
          "type": "uint256"
        }
      ],
      "name": "SpendERC20",
      "type": "event"
    },
    {
      "anonymous": false,
      "inputs": [],
      "name": "Unpause",
      "type": "event"
    },
    {
      "anonymous": false,
      "inputs": [
        {
          "indexed": false,
          "internalType": "address",
          "name": "account",
          "type": "address"
        }
      ],
      "name": "Unpaused",
      "type": "event"
    },
    {
      "anonymous": false,
      "inputs": [
        {
          "indexed": true,
          "internalType": "uint256",
          "name": "balance",
          "type": "uint256"
        }
      ],
      "name": "Withdraw",
      "type": "event"
    },
    {
      "anonymous": false,
      "inputs": [
        {
          "indexed": true,
          "internalType": "address",
          "name": "tokenAddress",
          "type": "address"
        },
        {
          "indexed": true,
          "internalType": "uint256",
          "name": "balance",
          "type": "uint256"
        }
      ],
      "name": "WithdrawERC20",
      "type": "event"
    },
    {
      "inputs": [
        {
          "internalType": "uint256",
          "name": "operation",
          "type": "uint256"
        },
        {
          "internalType": "address",
          "name": "to",
          "type": "address"
        },
        {
          "internalType": "uint256",
          "name": "value",
          "type": "uint256"
        },
        {
          "internalType": "bytes",
          "name": "data",
          "type": "bytes"
        }
      ],
      "name": "call",
      "outputs": [
        {
          "internalType": "bytes",
          "name": "result",
          "type": "bytes"
        }
      ],
      "stateMutability": "payable",
      "type": "function"
    },
    {
      "inputs": [],
      "name": "expirationTime",
      "outputs": [
        {
          "internalType": "uint256",
          "name": "",
          "type": "uint256"
        }
      ],
      "stateMutability": "view",
      "type": "function"
    },
    {
      "inputs": [],
      "name": "owner",
      "outputs": [
        {
          "internalType": "address",
          "name": "",
          "type": "address"
        }
      ],
      "stateMutability": "view",
      "type": "function"
    },
    {
      "inputs": [],
      "name": "pause",
      "outputs": [],
      "stateMutability": "nonpayable",
      "type": "function"
    },
    {
      "inputs": [],
      "name": "paused",
      "outputs": [
        {
          "internalType": "bool",
          "name": "",
          "type": "bool"
        }
      ],
      "stateMutability": "view",
      "type": "function"
    },
    {
      "inputs": [],
      "name": "renounceOwnership",
      "outputs": [],
      "stateMutability": "nonpayable",
      "type": "function"
    },
    {
      "inputs": [
        {
          "internalType": "address",
          "name": "_recipient",
          "type": "address"
        },
        {
          "internalType": "uint256",
          "name": "_amount",
          "type": "uint256"
        }
      ],
      "name": "spend",
      "outputs": [],
      "stateMutability": "nonpayable",
      "type": "function"
    },
    {
      "inputs": [
        {
          "internalType": "address",
          "name": "_tokenAddress",
          "type": "address"
        },
        {
          "internalType": "address",
          "name": "_recipient",
          "type": "address"
        },
        {
          "internalType": "uint256",
          "name": "_amount",
          "type": "uint256"
        }
      ],
      "name": "spendERC20",
      "outputs": [],
      "stateMutability": "nonpayable",
      "type": "function"
    },
    {
      "inputs": [
        {
          "internalType": "address",
          "name": "newOwner",
          "type": "address"
        }
      ],
      "name": "transferOwnership",
      "outputs": [],
      "stateMutability": "nonpayable",
      "type": "function"
    },
    {
      "inputs": [],
      "name": "unpause",
      "outputs": [],
      "stateMutability": "nonpayable",
      "type": "function"
    },
    {
      "inputs": [],
      "name": "withdraw",
      "outputs": [],
      "stateMutability": "nonpayable",
      "type": "function"
    },
    {
      "inputs": [
        {
          "internalType": "address",
          "name": "_tokenAddress",
          "type": "address"
        }
      ],
      "name": "withdrawERC20",
      "outputs": [],
      "stateMutability": "nonpayable",
      "type": "function"
    }
  ],
  "bytecode": "0x60806040523480156200001157600080fd5b5060405162002689380380620026898339818101604052810190620000379190620007ef565b620000576200004b6200018d60201b60201c565b6200019560201b60201c565b60008060146101000a81548160ff02191690831515021790555060005b8451811015620000ca57620000b6858281518110620000985762000097620008be565b5b602002602001015160016200025960201b62000c5f1790919060201c565b80620000c2906200091c565b905062000074565b5060005b83518110156200016a57828181518110620000ee57620000ed620008be565b5b60200260200101516002600086848151811062000110576200010f620008be565b5b602002602001015173ffffffffffffffffffffffffffffffffffffffff1673ffffffffffffffffffffffffffffffffffffffff168152602001908152602001600020819055508062000162906200091c565b9050620000ce565b506200017c336200030e60201b60201c565b806003819055505050505062000a84565b600033905090565b60008060009054906101000a900473ffffffffffffffffffffffffffffffffffffffff169050816000806101000a81548173ffffffffffffffffffffffffffffffffffffffff021916908373ffffffffffffffffffffffffffffffffffffffff1602179055508173ffffffffffffffffffffffffffffffffffffffff168173ffffffffffffffffffffffffffffffffffffffff167f8be0079c531659141344cd1fd0a4f28419497f9722a3daafe3b4186f6b6457e060405160405180910390a35050565b600073ffffffffffffffffffffffffffffffffffffffff168173ffffffffffffffffffffffffffffffffffffffff16036200029357600080fd5b620002a58282620003a460201b60201c565b15620002b057600080fd5b60018260000160008373ffffffffffffffffffffffffffffffffffffffff1673ffffffffffffffffffffffffffffffffffffffff16815260200190815260200160002060006101000a81548160ff0219169083151502179055505050565b6200031e6200043660201b60201c565b600073ffffffffffffffffffffffffffffffffffffffff168173ffffffffffffffffffffffffffffffffffffffff160362000390576040517f08c379a00000000000000000000000000000000000000000000000000000000081526004016200038790620009f0565b60405180910390fd5b620003a1816200019560201b60201c565b50565b60008073ffffffffffffffffffffffffffffffffffffffff168273ffffffffffffffffffffffffffffffffffffffff1603620003df57600080fd5b8260000160008373ffffffffffffffffffffffffffffffffffffffff1673ffffffffffffffffffffffffffffffffffffffff16815260200190815260200160002060009054906101000a900460ff16905092915050565b620004466200018d60201b60201c565b73ffffffffffffffffffffffffffffffffffffffff166200046c620004c760201b60201c565b73ffffffffffffffffffffffffffffffffffffffff1614620004c5576040517f08c379a0000000000000000000000000000000000000000000000000000000008152600401620004bc9062000a62565b60405180910390fd5b565b60008060009054906101000a900473ffffffffffffffffffffffffffffffffffffffff16905090565b6000604051905090565b600080fd5b600080fd5b600080fd5b6000601f19601f8301169050919050565b7f4e487b7100000000000000000000000000000000000000000000000000000000600052604160045260246000fd5b620005548262000509565b810181811067ffffffffffffffff821117156200057657620005756200051a565b5b80604052505050565b60006200058b620004f0565b905062000599828262000549565b919050565b600067ffffffffffffffff821115620005bc57620005bb6200051a565b5b602082029050602081019050919050565b600080fd5b600073ffffffffffffffffffffffffffffffffffffffff82169050919050565b6000620005ff82620005d2565b9050919050565b6200061181620005f2565b81146200061d57600080fd5b50565b600081519050620006318162000606565b92915050565b60006200064e62000648846200059e565b6200057f565b90508083825260208201905060208402830185811115620006745762000673620005cd565b5b835b81811015620006a157806200068c888262000620565b84526020840193505060208101905062000676565b5050509392505050565b600082601f830112620006c357620006c262000504565b5b8151620006d584826020860162000637565b91505092915050565b600067ffffffffffffffff821115620006fc57620006fb6200051a565b5b602082029050602081019050919050565b6000819050919050565b62000722816200070d565b81146200072e57600080fd5b50565b600081519050620007428162000717565b92915050565b60006200075f6200075984620006de565b6200057f565b90508083825260208201905060208402830185811115620007855762000784620005cd565b5b835b81811015620007b257806200079d888262000731565b84526020840193505060208101905062000787565b5050509392505050565b600082601f830112620007d457620007d362000504565b5b8151620007e684826020860162000748565b91505092915050565b600080600080608085870312156200080c576200080b620004fa565b5b600085015167ffffffffffffffff8111156200082d576200082c620004ff565b5b6200083b87828801620006ab565b945050602085015167ffffffffffffffff8111156200085f576200085e620004ff565b5b6200086d87828801620006ab565b935050604085015167ffffffffffffffff811115620008915762000890620004ff565b5b6200089f87828801620007bc565b9250506060620008b28782880162000731565b91505092959194509250565b7f4e487b7100000000000000000000000000000000000000000000000000000000600052603260045260246000fd5b7f4e487b7100000000000000000000000000000000000000000000000000000000600052601160045260246000fd5b600062000929826200070d565b91507fffffffffffffffffffffffffffffffffffffffffffffffffffffffffffffffff82036200095e576200095d620008ed565b5b600182019050919050565b600082825260208201905092915050565b7f4f776e61626c653a206e6577206f776e657220697320746865207a65726f206160008201527f6464726573730000000000000000000000000000000000000000000000000000602082015250565b6000620009d860268362000969565b9150620009e5826200097a565b604082019050919050565b6000602082019050818103600083015262000a0b81620009c9565b9050919050565b7f4f776e61626c653a2063616c6c6572206973206e6f7420746865206f776e6572600082015250565b600062000a4a60208362000969565b915062000a578262000a12565b602082019050919050565b6000602082019050818103600083015262000a7d8162000a3b565b9050919050565b611bf58062000a946000396000f3fe6080604052600436106100a75760003560e01c80638456cb59116100645780638456cb59146101755780638da5cb5b1461018c578063af7d6ca3146101b7578063da284dcc146101e0578063f2fde38b1461020b578063f4f3b20014610234576100a7565b80633ccfd60b146100ac5780633f4ba83a146100c35780635c975abb146100da578063715018a61461010557806377cae7581461011c5780637ef3e9f31461014c575b600080fd5b3480156100b857600080fd5b506100c161025d565b005b3480156100cf57600080fd5b506100d861030e565b005b3480156100e657600080fd5b506100ef61034c565b6040516100fc9190611058565b60405180910390f35b34801561011157600080fd5b5061011a610362565b005b61013660048036038101906101319190611261565b610376565b6040516101439190611363565b60405180910390f35b34801561015857600080fd5b50610173600480360381019061016e9190611385565b6106aa565b005b34801561018157600080fd5b5061018a6108b4565b005b34801561019857600080fd5b506101a16108f2565b6040516101ae91906113e7565b60405180910390f35b3480156101c357600080fd5b506101de60048036038101906101d99190611402565b61091b565b005b3480156101ec57600080fd5b506101f5610a76565b6040516102029190611451565b60405180910390f35b34801561021757600080fd5b50610232600480360381019061022d919061146c565b610a7c565b005b34801561024057600080fd5b5061025b6004803603810190610256919061146c565b610aff565b005b610265610d0a565b600047905060003373ffffffffffffffffffffffffffffffffffffffff1682604051610290906114ca565b60006040518083038185875af1925050503d80600081146102cd576040519150601f19603f3d011682016040523d82523d6000602084013e6102d2565b606091505b50509050801561030a57817f5b6b431d4476a211bb7d41c20d1aab9ae2321deee0d20be3d9fc9b1093fa6e3d60405160405180910390a25b5050565b610316610d0a565b61031e610d88565b7f7805862f689e2f13df9f062ff482ad3ad112aca9e0847911ed832e158c525b3360405160405180910390a1565b60008060149054906101000a900460ff16905090565b61036a610d0a565b6103746000610dea565b565b6060610380610d0a565b610388610eae565b60035442106103cc576040517f08c379a00000000000000000000000000000000000000000000000000000000081526004016103c39061153c565b60405180910390fd5b8247101561040f576040517f08c379a0000000000000000000000000000000000000000000000000000000008152600401610406906115a8565b60405180910390fd5b600085036104d1576000808573ffffffffffffffffffffffffffffffffffffffff16858560405161044091906115f9565b60006040518083038185875af1925050503d806000811461047d576040519150601f19603f3d011682016040523d82523d6000602084013e610482565b606091505b50915091508092507f4dd1eb0688b5a19d6b147085fa02958ee547aaf0f33072355d7cdb8023d99b3f8686866104b79061166e565b6040516104c6939291906116e4565b60405180910390a150505b6001850361066f57600073ffffffffffffffffffffffffffffffffffffffff168473ffffffffffffffffffffffffffffffffffffffff1614610548576040517f08c379a000000000000000000000000000000000000000000000000000000000815260040161053f9061178d565b60405180910390fd5b600082510361058c576040517f08c379a0000000000000000000000000000000000000000000000000000000008152600401610583906117f9565b60405180910390fd5b600082516020840185f09050600073ffffffffffffffffffffffffffffffffffffffff168173ffffffffffffffffffffffffffffffffffffffff1603610607576040517f08c379a00000000000000000000000000000000000000000000000000000000081526004016105fe90611865565b60405180910390fd5b8060405160200161061891906118cd565b6040516020818303038152906040529150838173ffffffffffffffffffffffffffffffffffffffff167fcc9018de05b5f497ee7618d8830568d8ac2d45d0671b73d8f71c67e824122ec760405160405180910390a3505b6040517f08c379a00000000000000000000000000000000000000000000000000000000081526004016106a190611934565b60405180910390fd5b6106be336001610ef890919063ffffffff16565b6106fd576040517f08c379a00000000000000000000000000000000000000000000000000000000081526004016106f4906119a0565b60405180910390fd5b610705610eae565b6003544210610749576040517f08c379a00000000000000000000000000000000000000000000000000000000081526004016107409061153c565b60405180910390fd5b60007fa9059cbb2ab09eb219583f4a59a5d0623ade346d962bcd4e46b11da047c9049b838360405160240161077f9291906119c0565b604051602081830303815290604052907bffffffffffffffffffffffffffffffffffffffffffffffffffffffff19166020820180517bffffffffffffffffffffffffffffffffffffffffffffffffffffffff8381831617835250505050905060008473ffffffffffffffffffffffffffffffffffffffff168260405161080591906115f9565b6000604051808303816000865af19150503d8060008114610842576040519150601f19603f3d011682016040523d82523d6000602084013e610847565b606091505b5050905080156108ad57828473ffffffffffffffffffffffffffffffffffffffff168673ffffffffffffffffffffffffffffffffffffffff167f461e882263d73780411f38de84868d70e01dd3a843ef735a9bcfe0394fcded5a60405160405180910390a45b5050505050565b6108bc610d0a565b6108c4610f89565b7f6985a02210a168e66602d3235cb6db0e70f92b3ba4d376a33c0f3d9434bff62560405160405180910390a1565b60008060009054906101000a900473ffffffffffffffffffffffffffffffffffffffff16905090565b61092f336001610ef890919063ffffffff16565b61096e576040517f08c379a0000000000000000000000000000000000000000000000000000000008152600401610965906119a0565b60405180910390fd5b610976610eae565b60035442106109ba576040517f08c379a00000000000000000000000000000000000000000000000000000000081526004016109b19061153c565b60405180910390fd5b60008273ffffffffffffffffffffffffffffffffffffffff16826040516109e0906114ca565b60006040518083038185875af1925050503d8060008114610a1d576040519150601f19603f3d011682016040523d82523d6000602084013e610a22565b606091505b505090508015610a7157818373ffffffffffffffffffffffffffffffffffffffff167faeba90871f7da8a443096c396877004da901c92fcab3ec900a99cecddb19ec4d60405160405180910390a35b505050565b60035481565b610a84610d0a565b600073ffffffffffffffffffffffffffffffffffffffff168173ffffffffffffffffffffffffffffffffffffffff1603610af3576040517f08c379a0000000000000000000000000000000000000000000000000000000008152600401610aea90611a5b565b60405180910390fd5b610afc81610dea565b50565b610b07610d0a565b600047905060007fa9059cbb2ab09eb219583f4a59a5d0623ade346d962bcd4e46b11da047c9049b3383604051602401610b429291906119c0565b604051602081830303815290604052907bffffffffffffffffffffffffffffffffffffffffffffffffffffffff19166020820180517bffffffffffffffffffffffffffffffffffffffffffffffffffffffff8381831617835250505050905060008373ffffffffffffffffffffffffffffffffffffffff1682604051610bc891906115f9565b6000604051808303816000865af19150503d8060008114610c05576040519150601f19603f3d011682016040523d82523d6000602084013e610c0a565b606091505b505090508015610c5957828473ffffffffffffffffffffffffffffffffffffffff167fbe7426aee8a34d0263892b55ce65ce81d8f4c806eb4719e59015ea49feb92d2260405160405180910390a35b50505050565b600073ffffffffffffffffffffffffffffffffffffffff168173ffffffffffffffffffffffffffffffffffffffff1603610c9857600080fd5b610ca28282610ef8565b15610cac57600080fd5b60018260000160008373ffffffffffffffffffffffffffffffffffffffff1673ffffffffffffffffffffffffffffffffffffffff16815260200190815260200160002060006101000a81548160ff0219169083151502179055505050565b610d12610fec565b73ffffffffffffffffffffffffffffffffffffffff16610d306108f2565b73ffffffffffffffffffffffffffffffffffffffff1614610d86576040517f08c379a0000000000000000000000000000000000000000000000000000000008152600401610d7d90611ac7565b60405180910390fd5b565b610d90610ff4565b60008060146101000a81548160ff0219169083151502179055507f5db9ee0a495bf2e6ff9c91a7834c1ba4fdd244a5e8aa4e537bd38aeae4b073aa610dd3610fec565b604051610de091906113e7565b60405180910390a1565b60008060009054906101000a900473ffffffffffffffffffffffffffffffffffffffff169050816000806101000a81548173ffffffffffffffffffffffffffffffffffffffff021916908373ffffffffffffffffffffffffffffffffffffffff1602179055508173ffffffffffffffffffffffffffffffffffffffff168173ffffffffffffffffffffffffffffffffffffffff167f8be0079c531659141344cd1fd0a4f28419497f9722a3daafe3b4186f6b6457e060405160405180910390a35050565b610eb661034c565b15610ef6576040517f08c379a0000000000000000000000000000000000000000000000000000000008152600401610eed90611b33565b60405180910390fd5b565b60008073ffffffffffffffffffffffffffffffffffffffff168273ffffffffffffffffffffffffffffffffffffffff1603610f3257600080fd5b8260000160008373ffffffffffffffffffffffffffffffffffffffff1673ffffffffffffffffffffffffffffffffffffffff16815260200190815260200160002060009054906101000a900460ff16905092915050565b610f91610eae565b6001600060146101000a81548160ff0219169083151502179055507f62e78cea01bee320cd4e420270b5ea74000d11b0c9f74754ebdbfc544b05a258610fd5610fec565b604051610fe291906113e7565b60405180910390a1565b600033905090565b610ffc61034c565b61103b576040517f08c379a000000000000000000000000000000000000000000000000000000000815260040161103290611b9f565b60405180910390fd5b565b60008115159050919050565b6110528161103d565b82525050565b600060208201905061106d6000830184611049565b92915050565b6000604051905090565b600080fd5b600080fd5b6000819050919050565b61109a81611087565b81146110a557600080fd5b50565b6000813590506110b781611091565b92915050565b600073ffffffffffffffffffffffffffffffffffffffff82169050919050565b60006110e8826110bd565b9050919050565b6110f8816110dd565b811461110357600080fd5b50565b600081359050611115816110ef565b92915050565b600080fd5b600080fd5b6000601f19601f8301169050919050565b7f4e487b7100000000000000000000000000000000000000000000000000000000600052604160045260246000fd5b61116e82611125565b810181811067ffffffffffffffff8211171561118d5761118c611136565b5b80604052505050565b60006111a0611073565b90506111ac8282611165565b919050565b600067ffffffffffffffff8211156111cc576111cb611136565b5b6111d582611125565b9050602081019050919050565b82818337600083830152505050565b60006112046111ff846111b1565b611196565b9050828152602081018484840111156112205761121f611120565b5b61122b8482856111e2565b509392505050565b600082601f8301126112485761124761111b565b5b81356112588482602086016111f1565b91505092915050565b6000806000806080858703121561127b5761127a61107d565b5b6000611289878288016110a8565b945050602061129a87828801611106565b93505060406112ab878288016110a8565b925050606085013567ffffffffffffffff8111156112cc576112cb611082565b5b6112d887828801611233565b91505092959194509250565b600081519050919050565b600082825260208201905092915050565b60005b8381101561131e578082015181840152602081019050611303565b60008484015250505050565b6000611335826112e4565b61133f81856112ef565b935061134f818560208601611300565b61135881611125565b840191505092915050565b6000602082019050818103600083015261137d818461132a565b905092915050565b60008060006060848603121561139e5761139d61107d565b5b60006113ac86828701611106565b93505060206113bd86828701611106565b92505060406113ce868287016110a8565b9150509250925092565b6113e1816110dd565b82525050565b60006020820190506113fc60008301846113d8565b92915050565b600080604083850312156114195761141861107d565b5b600061142785828601611106565b9250506020611438858286016110a8565b9150509250929050565b61144b81611087565b82525050565b60006020820190506114666000830184611442565b92915050565b6000602082840312156114825761148161107d565b5b600061149084828501611106565b91505092915050565b600081905092915050565b50565b60006114b4600083611499565b91506114bf826114a4565b600082019050919050565b60006114d5826114a7565b9150819050919050565b600082825260208201905092915050565b7f506f64206973206e6f7720657870697265640000000000000000000000000000600082015250565b60006115266012836114df565b9150611531826114f0565b602082019050919050565b6000602082019050818103600083015261155581611519565b9050919050565b7f496e73756666696369656e742062616c616e6365000000000000000000000000600082015250565b60006115926014836114df565b915061159d8261155c565b602082019050919050565b600060208201905081810360008301526115c181611585565b9050919050565b60006115d3826112e4565b6115dd8185611499565b93506115ed818560208601611300565b80840191505092915050565b600061160582846115c8565b915081905092915050565b6000819050602082019050919050565b60007fffffffff0000000000000000000000000000000000000000000000000000000082169050919050565b60006116588251611620565b80915050919050565b600082821b905092915050565b6000611679826112e4565b8261168384611610565b905061168e8161164c565b925060048210156116ce576116c97fffffffff0000000000000000000000000000000000000000000000000000000083600403600802611661565b831692505b5050919050565b6116de81611620565b82525050565b60006060820190506116f960008301866113d8565b6117066020830185611442565b61171360408301846116d5565b949350505050565b7f435245415445206f7065726174696f6e7320726571756972652074686520726560008201527f636569766572206164647265737320746f20626520656d707479000000000000602082015250565b6000611777603a836114df565b91506117828261171b565b604082019050919050565b600060208201905081810360008301526117a68161176a565b9050919050565b7f4e6f20636f6e74726163742062797465636f64652070726f7669646564000000600082015250565b60006117e3601d836114df565b91506117ee826117ad565b602082019050919050565b60006020820190508181036000830152611812816117d6565b9050919050565b7f436f756c64206e6f74206465706c6f7920636f6e747261637400000000000000600082015250565b600061184f6019836114df565b915061185a82611819565b602082019050919050565b6000602082019050818103600083015261187e81611842565b9050919050565b60008160601b9050919050565b600061189d82611885565b9050919050565b60006118af82611892565b9050919050565b6118c76118c2826110dd565b6118a4565b82525050565b60006118d982846118b6565b60148201915081905092915050565b7f556e6b6e6f776e206f7065726174696f6e207479706500000000000000000000600082015250565b600061191e6016836114df565b9150611929826118e8565b602082019050919050565b6000602082019050818103600083015261194d81611911565b9050919050565b7f43616c6c6572206973206e6f742074686520636f6e74726f6c6c657200000000600082015250565b600061198a601c836114df565b915061199582611954565b602082019050919050565b600060208201905081810360008301526119b98161197d565b9050919050565b60006040820190506119d560008301856113d8565b6119e26020830184611442565b9392505050565b7f4f776e61626c653a206e6577206f776e657220697320746865207a65726f206160008201527f6464726573730000000000000000000000000000000000000000000000000000602082015250565b6000611a456026836114df565b9150611a50826119e9565b604082019050919050565b60006020820190508181036000830152611a7481611a38565b9050919050565b7f4f776e61626c653a2063616c6c6572206973206e6f7420746865206f776e6572600082015250565b6000611ab16020836114df565b9150611abc82611a7b565b602082019050919050565b60006020820190508181036000830152611ae081611aa4565b9050919050565b7f5061757361626c653a2070617573656400000000000000000000000000000000600082015250565b6000611b1d6010836114df565b9150611b2882611ae7565b602082019050919050565b60006020820190508181036000830152611b4c81611b10565b9050919050565b7f5061757361626c653a206e6f7420706175736564000000000000000000000000600082015250565b6000611b896014836114df565b9150611b9482611b53565b602082019050919050565b60006020820190508181036000830152611bb881611b7c565b905091905056fea264697066735822122040fbb23172090bf9f20076458a882cad322557251ec44d672f436f717824485164736f6c63430008110033",
  "linkReferences": {},
  "deployedLinkReferences": {}
}