{
  "_format": "hh-sol-artifact-1",
  "contractName": "PayPod",
  "sourceName": "contracts/PayPod.sol",
  "abi": [
    {
      "inputs": [
        {
          "internalType": "string",
          "name": "_name",
          "type": "string"
        },
        {
          "internalType": "address[]",
          "name": "_controllers",
          "type": "address[]"
        },
        {
          "internalType": "address[]",
          "name": "tokenAddresses",
          "type": "address[]"
        },
        {
          "internalType": "uint256[]",
          "name": "limits",
          "type": "uint256[]"
        },
        {
          "internalType": "uint256",
          "name": "_expirationTime",
          "type": "uint256"
        }
      ],
      "stateMutability": "nonpayable",
      "type": "constructor"
    },
    {
      "anonymous": false,
      "inputs": [
        {
          "indexed": false,
          "internalType": "address",
          "name": "to",
          "type": "address"
        },
        {
          "indexed": false,
          "internalType": "uint256",
          "name": "value",
          "type": "uint256"
        },
        {
          "indexed": false,
          "internalType": "bytes4",
          "name": "data",
          "type": "bytes4"
        }
      ],
      "name": "Call",
      "type": "event"
    },
    {
      "anonymous": false,
      "inputs": [
        {
          "indexed": true,
          "internalType": "address",
          "name": "tokenAddress",
          "type": "address"
        },
        {
          "indexed": true,
          "internalType": "uint256",
          "name": "value",
          "type": "uint256"
        }
      ],
      "name": "Create",
      "type": "event"
    },
    {
      "anonymous": false,
      "inputs": [
        {
          "indexed": true,
          "internalType": "address",
          "name": "previousOwner",
          "type": "address"
        },
        {
          "indexed": true,
          "internalType": "address",
          "name": "newOwner",
          "type": "address"
        }
      ],
      "name": "OwnershipTransferred",
      "type": "event"
    },
    {
      "anonymous": false,
      "inputs": [],
      "name": "Pause",
      "type": "event"
    },
    {
      "anonymous": false,
      "inputs": [
        {
          "indexed": false,
          "internalType": "address",
          "name": "account",
          "type": "address"
        }
      ],
      "name": "Paused",
      "type": "event"
    },
    {
      "anonymous": false,
      "inputs": [
        {
          "indexed": true,
          "internalType": "address",
          "name": "recipient",
          "type": "address"
        },
        {
          "indexed": true,
          "internalType": "uint256",
          "name": "amount",
          "type": "uint256"
        }
      ],
      "name": "Spend",
      "type": "event"
    },
    {
      "anonymous": false,
      "inputs": [
        {
          "indexed": true,
          "internalType": "address",
          "name": "tokenAddress",
          "type": "address"
        },
        {
          "indexed": true,
          "internalType": "address",
          "name": "recipient",
          "type": "address"
        },
        {
          "indexed": true,
          "internalType": "uint256",
          "name": "amount",
          "type": "uint256"
        }
      ],
      "name": "SpendERC20",
      "type": "event"
    },
    {
      "anonymous": false,
      "inputs": [],
      "name": "Unpause",
      "type": "event"
    },
    {
      "anonymous": false,
      "inputs": [
        {
          "indexed": false,
          "internalType": "address",
          "name": "account",
          "type": "address"
        }
      ],
      "name": "Unpaused",
      "type": "event"
    },
    {
      "anonymous": false,
      "inputs": [
        {
          "indexed": true,
          "internalType": "uint256",
          "name": "balance",
          "type": "uint256"
        }
      ],
      "name": "Withdraw",
      "type": "event"
    },
    {
      "anonymous": false,
      "inputs": [
        {
          "indexed": true,
          "internalType": "address",
          "name": "tokenAddress",
          "type": "address"
        },
        {
          "indexed": true,
          "internalType": "uint256",
          "name": "balance",
          "type": "uint256"
        }
      ],
      "name": "WithdrawERC20",
      "type": "event"
    },
    {
      "inputs": [
        {
          "internalType": "address",
          "name": "to",
          "type": "address"
        },
        {
          "internalType": "uint256",
          "name": "value",
          "type": "uint256"
        },
        {
          "internalType": "bytes",
          "name": "data",
          "type": "bytes"
        }
      ],
      "name": "call",
      "outputs": [
        {
          "internalType": "bytes",
          "name": "result",
          "type": "bytes"
        }
      ],
      "stateMutability": "payable",
      "type": "function"
    },
    {
      "inputs": [
        {
          "internalType": "uint256",
          "name": "",
          "type": "uint256"
        }
      ],
      "name": "controllers",
      "outputs": [
        {
          "internalType": "address",
          "name": "",
          "type": "address"
        }
      ],
      "stateMutability": "view",
      "type": "function"
    },
    {
      "inputs": [
        {
          "internalType": "address",
          "name": "to",
          "type": "address"
        },
        {
          "internalType": "uint256",
          "name": "value",
          "type": "uint256"
        },
        {
          "internalType": "bytes",
          "name": "data",
          "type": "bytes"
        }
      ],
      "name": "create",
      "outputs": [
        {
          "internalType": "bytes",
          "name": "result",
          "type": "bytes"
        }
      ],
      "stateMutability": "payable",
      "type": "function"
    },
    {
      "inputs": [],
      "name": "expirationTime",
      "outputs": [
        {
          "internalType": "uint256",
          "name": "",
          "type": "uint256"
        }
      ],
      "stateMutability": "view",
      "type": "function"
    },
    {
      "inputs": [],
      "name": "getControllers",
      "outputs": [
        {
          "internalType": "address[]",
          "name": "",
          "type": "address[]"
        }
      ],
      "stateMutability": "view",
      "type": "function"
    },
    {
      "inputs": [],
      "name": "name",
      "outputs": [
        {
          "internalType": "string",
          "name": "",
          "type": "string"
        }
      ],
      "stateMutability": "view",
      "type": "function"
    },
    {
      "inputs": [],
      "name": "owner",
      "outputs": [
        {
          "internalType": "address",
          "name": "",
          "type": "address"
        }
      ],
      "stateMutability": "view",
      "type": "function"
    },
    {
      "inputs": [],
      "name": "pause",
      "outputs": [],
      "stateMutability": "nonpayable",
      "type": "function"
    },
    {
      "inputs": [],
      "name": "paused",
      "outputs": [
        {
          "internalType": "bool",
          "name": "",
          "type": "bool"
        }
      ],
      "stateMutability": "view",
      "type": "function"
    },
    {
      "inputs": [],
      "name": "renounceOwnership",
      "outputs": [],
      "stateMutability": "nonpayable",
      "type": "function"
    },
    {
      "inputs": [
        {
          "internalType": "address",
          "name": "_recipient",
          "type": "address"
        },
        {
          "internalType": "uint256",
          "name": "_amount",
          "type": "uint256"
        }
      ],
      "name": "spend",
      "outputs": [],
      "stateMutability": "nonpayable",
      "type": "function"
    },
    {
      "inputs": [
        {
          "internalType": "address",
          "name": "_tokenAddress",
          "type": "address"
        },
        {
          "internalType": "address",
          "name": "_recipient",
          "type": "address"
        },
        {
          "internalType": "uint256",
          "name": "_amount",
          "type": "uint256"
        }
      ],
      "name": "spendERC20",
      "outputs": [],
      "stateMutability": "nonpayable",
      "type": "function"
    },
    {
      "inputs": [
        {
          "internalType": "address",
          "name": "",
          "type": "address"
        }
      ],
      "name": "spendLimits",
      "outputs": [
        {
          "internalType": "uint256",
          "name": "",
          "type": "uint256"
        }
      ],
      "stateMutability": "view",
      "type": "function"
    },
    {
      "inputs": [
        {
          "internalType": "address",
          "name": "newOwner",
          "type": "address"
        }
      ],
      "name": "transferOwnership",
      "outputs": [],
      "stateMutability": "nonpayable",
      "type": "function"
    },
    {
      "inputs": [],
      "name": "unpause",
      "outputs": [],
      "stateMutability": "nonpayable",
      "type": "function"
    },
    {
      "inputs": [
        {
          "internalType": "uint256",
          "name": "_amount",
          "type": "uint256"
        },
        {
          "internalType": "bool",
          "name": "_withdrawAll",
          "type": "bool"
        }
      ],
      "name": "withdraw",
      "outputs": [],
      "stateMutability": "nonpayable",
      "type": "function"
    },
    {
      "inputs": [
        {
          "internalType": "address",
          "name": "_tokenAddress",
          "type": "address"
        },
        {
          "internalType": "uint256",
          "name": "_amount",
          "type": "uint256"
        },
        {
          "internalType": "bool",
          "name": "_withdrawAll",
          "type": "bool"
        }
      ],
      "name": "withdrawERC20",
      "outputs": [],
      "stateMutability": "nonpayable",
      "type": "function"
    }
  ],
  "bytecode": "0x60806040523480156200001157600080fd5b506040516200352138038062003521833981810160405281019062000037919062000943565b620000576200004b620001a160201b60201c565b620001a960201b60201c565b60008060146101000a81548160ff021916908315150217905550846004908162000082919062000c88565b5060005b8451811015620000d257620000be858281518110620000aa57620000a962000d6f565b5b60200260200101516200026d60201b60201c565b80620000ca9062000dcd565b905062000086565b5060005b83518110156200017257828181518110620000f657620000f562000d6f565b5b60200260200101516003600086848151811062000118576200011762000d6f565b5b602002602001015173ffffffffffffffffffffffffffffffffffffffff1673ffffffffffffffffffffffffffffffffffffffff16815260200190815260200160002081905550806200016a9062000dcd565b9050620000d6565b5060008111156200018557806005819055505b62000196336200038060201b60201c565b505050505062000f35565b600033905090565b60008060009054906101000a900473ffffffffffffffffffffffffffffffffffffffff169050816000806101000a81548173ffffffffffffffffffffffffffffffffffffffff021916908373ffffffffffffffffffffffffffffffffffffffff1602179055508173ffffffffffffffffffffffffffffffffffffffff168173ffffffffffffffffffffffffffffffffffffffff167f8be0079c531659141344cd1fd0a4f28419497f9722a3daafe3b4186f6b6457e060405160405180910390a35050565b600073ffffffffffffffffffffffffffffffffffffffff168173ffffffffffffffffffffffffffffffffffffffff1603620002a757600080fd5b620002b8816200041660201b60201c565b15620002c357600080fd5b60018060008373ffffffffffffffffffffffffffffffffffffffff1673ffffffffffffffffffffffffffffffffffffffff16815260200190815260200160002060006101000a81548160ff0219169083151502179055506002819080600181540180825580915050600190039060005260206000200160009091909190916101000a81548173ffffffffffffffffffffffffffffffffffffffff021916908373ffffffffffffffffffffffffffffffffffffffff16021790555050565b62000390620004a560201b60201c565b600073ffffffffffffffffffffffffffffffffffffffff168173ffffffffffffffffffffffffffffffffffffffff160362000402576040517f08c379a0000000000000000000000000000000000000000000000000000000008152600401620003f99062000ea1565b60405180910390fd5b6200041381620001a960201b60201c565b50565b60008073ffffffffffffffffffffffffffffffffffffffff168273ffffffffffffffffffffffffffffffffffffffff16036200045157600080fd5b600160008373ffffffffffffffffffffffffffffffffffffffff1673ffffffffffffffffffffffffffffffffffffffff16815260200190815260200160002060009054906101000a900460ff169050919050565b620004b5620001a160201b60201c565b73ffffffffffffffffffffffffffffffffffffffff16620004db6200053660201b60201c565b73ffffffffffffffffffffffffffffffffffffffff161462000534576040517f08c379a00000000000000000000000000000000000000000000000000000000081526004016200052b9062000f13565b60405180910390fd5b565b60008060009054906101000a900473ffffffffffffffffffffffffffffffffffffffff16905090565b6000604051905090565b600080fd5b600080fd5b600080fd5b600080fd5b6000601f19601f8301169050919050565b7f4e487b7100000000000000000000000000000000000000000000000000000000600052604160045260246000fd5b620005c8826200057d565b810181811067ffffffffffffffff82111715620005ea57620005e96200058e565b5b80604052505050565b6000620005ff6200055f565b90506200060d8282620005bd565b919050565b600067ffffffffffffffff82111562000630576200062f6200058e565b5b6200063b826200057d565b9050602081019050919050565b60005b83811015620006685780820151818401526020810190506200064b565b60008484015250505050565b60006200068b620006858462000612565b620005f3565b905082815260208101848484011115620006aa57620006a962000578565b5b620006b784828562000648565b509392505050565b600082601f830112620006d757620006d662000573565b5b8151620006e984826020860162000674565b91505092915050565b600067ffffffffffffffff82111562000710576200070f6200058e565b5b602082029050602081019050919050565b600080fd5b600073ffffffffffffffffffffffffffffffffffffffff82169050919050565b6000620007538262000726565b9050919050565b620007658162000746565b81146200077157600080fd5b50565b60008151905062000785816200075a565b92915050565b6000620007a26200079c84620006f2565b620005f3565b90508083825260208201905060208402830185811115620007c857620007c762000721565b5b835b81811015620007f55780620007e0888262000774565b845260208401935050602081019050620007ca565b5050509392505050565b600082601f83011262000817576200081662000573565b5b8151620008298482602086016200078b565b91505092915050565b600067ffffffffffffffff82111562000850576200084f6200058e565b5b602082029050602081019050919050565b6000819050919050565b620008768162000861565b81146200088257600080fd5b50565b60008151905062000896816200086b565b92915050565b6000620008b3620008ad8462000832565b620005f3565b90508083825260208201905060208402830185811115620008d957620008d862000721565b5b835b81811015620009065780620008f1888262000885565b845260208401935050602081019050620008db565b5050509392505050565b600082601f83011262000928576200092762000573565b5b81516200093a8482602086016200089c565b91505092915050565b600080600080600060a0868803121562000962576200096162000569565b5b600086015167ffffffffffffffff8111156200098357620009826200056e565b5b6200099188828901620006bf565b955050602086015167ffffffffffffffff811115620009b557620009b46200056e565b5b620009c388828901620007ff565b945050604086015167ffffffffffffffff811115620009e757620009e66200056e565b5b620009f588828901620007ff565b935050606086015167ffffffffffffffff81111562000a195762000a186200056e565b5b62000a278882890162000910565b925050608062000a3a8882890162000885565b9150509295509295909350565b600081519050919050565b7f4e487b7100000000000000000000000000000000000000000000000000000000600052602260045260246000fd5b6000600282049050600182168062000a9a57607f821691505b60208210810362000ab05762000aaf62000a52565b5b50919050565b60008190508160005260206000209050919050565b60006020601f8301049050919050565b600082821b905092915050565b60006008830262000b1a7fffffffffffffffffffffffffffffffffffffffffffffffffffffffffffffffff8262000adb565b62000b26868362000adb565b95508019841693508086168417925050509392505050565b6000819050919050565b600062000b6962000b6362000b5d8462000861565b62000b3e565b62000861565b9050919050565b6000819050919050565b62000b858362000b48565b62000b9d62000b948262000b70565b84845462000ae8565b825550505050565b600090565b62000bb462000ba5565b62000bc181848462000b7a565b505050565b5b8181101562000be95762000bdd60008262000baa565b60018101905062000bc7565b5050565b601f82111562000c385762000c028162000ab6565b62000c0d8462000acb565b8101602085101562000c1d578190505b62000c3562000c2c8562000acb565b83018262000bc6565b50505b505050565b600082821c905092915050565b600062000c5d6000198460080262000c3d565b1980831691505092915050565b600062000c78838362000c4a565b9150826002028217905092915050565b62000c938262000a47565b67ffffffffffffffff81111562000caf5762000cae6200058e565b5b62000cbb825462000a81565b62000cc882828562000bed565b600060209050601f83116001811462000d00576000841562000ceb578287015190505b62000cf7858262000c6a565b86555062000d67565b601f19841662000d108662000ab6565b60005b8281101562000d3a5784890151825560018201915060208501945060208101905062000d13565b8683101562000d5a578489015162000d56601f89168262000c4a565b8355505b6001600288020188555050505b505050505050565b7f4e487b7100000000000000000000000000000000000000000000000000000000600052603260045260246000fd5b7f4e487b7100000000000000000000000000000000000000000000000000000000600052601160045260246000fd5b600062000dda8262000861565b91507fffffffffffffffffffffffffffffffffffffffffffffffffffffffffffffffff820362000e0f5762000e0e62000d9e565b5b600182019050919050565b600082825260208201905092915050565b7f4f776e61626c653a206e6577206f776e657220697320746865207a65726f206160008201527f6464726573730000000000000000000000000000000000000000000000000000602082015250565b600062000e8960268362000e1a565b915062000e968262000e2b565b604082019050919050565b6000602082019050818103600083015262000ebc8162000e7a565b9050919050565b7f4f776e61626c653a2063616c6c6572206973206e6f7420746865206f776e6572600082015250565b600062000efb60208362000e1a565b915062000f088262000ec3565b602082019050919050565b6000602082019050818103600083015262000f2e8162000eec565b9050919050565b6125dc8062000f456000396000f3fe6080604052600436106100fe5760003560e01c80637ef3e9f311610095578063b4e8a6c411610064578063b4e8a6c4146102e1578063bb80f2621461030c578063da284dcc14610335578063e94b0dd214610360578063f2fde38b1461039d576100fe565b80637ef3e9f31461024d5780638456cb59146102765780638da5cb5b1461028d578063af7d6ca3146102b8576100fe565b8063696c9c0a116100d1578063696c9c0a146101995780636dbf2fa0146101c9578063715018a6146101f9578063741a679714610210576100fe565b806306fdde031461010357806338d074361461012e5780633f4ba83a146101575780635c975abb1461016e575b600080fd5b34801561010f57600080fd5b506101186103c6565b60405161012591906117a4565b60405180910390f35b34801561013a57600080fd5b5061015560048036038101906101509190611848565b610454565b005b34801561016357600080fd5b5061016c6105b4565b005b34801561017a57600080fd5b506101836105f2565b6040516101909190611897565b60405180910390f35b6101b360048036038101906101ae9190611a45565b610608565b6040516101c09190611b09565b60405180910390f35b6101e360048036038101906101de9190611a45565b61088a565b6040516101f09190611b09565b60405180910390f35b34801561020557600080fd5b5061020e610a37565b005b34801561021c57600080fd5b5061023760048036038101906102329190611b2b565b610a4b565b6040516102449190611b67565b60405180910390f35b34801561025957600080fd5b50610274600480360381019061026f9190611b82565b610a63565b005b34801561028257600080fd5b5061028b610d3f565b005b34801561029957600080fd5b506102a2610d7d565b6040516102af9190611be4565b60405180910390f35b3480156102c457600080fd5b506102df60048036038101906102da9190611bff565b610da6565b005b3480156102ed57600080fd5b506102f6610fd1565b6040516103039190611cfd565b60405180910390f35b34801561031857600080fd5b50610333600480360381019061032e9190611d1f565b61105f565b005b34801561034157600080fd5b5061034a61131c565b6040516103579190611b67565b60405180910390f35b34801561036c57600080fd5b5061038760048036038101906103829190611d72565b611322565b6040516103949190611be4565b60405180910390f35b3480156103a957600080fd5b506103c460048036038101906103bf9190611b2b565b611361565b005b600480546103d390611dce565b80601f01602080910402602001604051908101604052809291908181526020018280546103ff90611dce565b801561044c5780601f106104215761010080835404028352916020019161044c565b820191906000526020600020905b81548152906001019060200180831161042f57829003601f168201915b505050505081565b61045c6113e4565b801561050e57600047905060003373ffffffffffffffffffffffffffffffffffffffff168260405161048d90611e30565b60006040518083038185875af1925050503d80600081146104ca576040519150601f19603f3d011682016040523d82523d6000602084013e6104cf565b606091505b50509050801561050757817f5b6b431d4476a211bb7d41c20d1aab9ae2321deee0d20be3d9fc9b1093fa6e3d60405160405180910390a25b50506105b0565b60003373ffffffffffffffffffffffffffffffffffffffff168360405161053490611e30565b60006040518083038185875af1925050503d8060008114610571576040519150601f19603f3d011682016040523d82523d6000602084013e610576565b606091505b5050905080156105ae57827f5b6b431d4476a211bb7d41c20d1aab9ae2321deee0d20be3d9fc9b1093fa6e3d60405160405180910390a25b505b5050565b6105bc6113e4565b6105c4611462565b7f7805862f689e2f13df9f062ff482ad3ad112aca9e0847911ed832e158c525b3360405160405180910390a1565b60008060149054906101000a900460ff16905090565b6060610613336114c4565b610652576040517f08c379a000000000000000000000000000000000000000000000000000000000815260040161064990611e91565b60405180910390fd5b61065a611552565b6000600554148061066c575060055442105b6106ab576040517f08c379a00000000000000000000000000000000000000000000000000000000081526004016106a290611efd565b60405180910390fd5b824710156106ee576040517f08c379a00000000000000000000000000000000000000000000000000000000081526004016106e590611f69565b60405180910390fd5b600073ffffffffffffffffffffffffffffffffffffffff168473ffffffffffffffffffffffffffffffffffffffff161461075d576040517f08c379a000000000000000000000000000000000000000000000000000000000815260040161075490611ffb565b60405180910390fd5b60008251036107a1576040517f08c379a000000000000000000000000000000000000000000000000000000000815260040161079890612067565b60405180910390fd5b600082516020840185f09050600073ffffffffffffffffffffffffffffffffffffffff168173ffffffffffffffffffffffffffffffffffffffff160361081c576040517f08c379a0000000000000000000000000000000000000000000000000000000008152600401610813906120d3565b60405180910390fd5b8060405160200161082d919061213b565b6040516020818303038152906040529150838173ffffffffffffffffffffffffffffffffffffffff167fcc9018de05b5f497ee7618d8830568d8ac2d45d0671b73d8f71c67e824122ec760405160405180910390a3509392505050565b6060610895336114c4565b6108d4576040517f08c379a00000000000000000000000000000000000000000000000000000000081526004016108cb90611e91565b60405180910390fd5b6108dc611552565b600060055414806108ee575060055442105b61092d576040517f08c379a000000000000000000000000000000000000000000000000000000000815260040161092490611efd565b60405180910390fd5b82471015610970576040517f08c379a000000000000000000000000000000000000000000000000000000000815260040161096790611f69565b60405180910390fd5b6000808573ffffffffffffffffffffffffffffffffffffffff1685856040516109999190612187565b60006040518083038185875af1925050503d80600081146109d6576040519150601f19603f3d011682016040523d82523d6000602084013e6109db565b606091505b50915091508092508115610a2e577f4dd1eb0688b5a19d6b147085fa02958ee547aaf0f33072355d7cdb8023d99b3f868686610a16906121fc565b604051610a2593929190612272565b60405180910390a15b50509392505050565b610a3f6113e4565b610a49600061159c565b565b60036020528060005260406000206000915090505481565b610a6c336114c4565b610aab576040517f08c379a0000000000000000000000000000000000000000000000000000000008152600401610aa290611e91565b60405180910390fd5b610ab3611552565b60006005541480610ac5575060055442105b610b04576040517f08c379a0000000000000000000000000000000000000000000000000000000008152600401610afb90611efd565b60405180910390fd5b82816000600360008473ffffffffffffffffffffffffffffffffffffffff1673ffffffffffffffffffffffffffffffffffffffff168152602001908152602001600020541480610b93575080600360008473ffffffffffffffffffffffffffffffffffffffff1673ffffffffffffffffffffffffffffffffffffffff1681526020019081526020016000205410155b610bd2576040517f08c379a0000000000000000000000000000000000000000000000000000000008152600401610bc99061231b565b60405180910390fd5b60007fa9059cbb2ab09eb219583f4a59a5d0623ade346d962bcd4e46b11da047c9049b8585604051602401610c0892919061233b565b604051602081830303815290604052907bffffffffffffffffffffffffffffffffffffffffffffffffffffffff19166020820180517bffffffffffffffffffffffffffffffffffffffffffffffffffffffff8381831617835250505050905060008673ffffffffffffffffffffffffffffffffffffffff1682604051610c8e9190612187565b6000604051808303816000865af19150503d8060008114610ccb576040519150601f19603f3d011682016040523d82523d6000602084013e610cd0565b606091505b505090508015610d3657848673ffffffffffffffffffffffffffffffffffffffff168873ffffffffffffffffffffffffffffffffffffffff167f461e882263d73780411f38de84868d70e01dd3a843ef735a9bcfe0394fcded5a60405160405180910390a45b50505050505050565b610d476113e4565b610d4f611660565b7f6985a02210a168e66602d3235cb6db0e70f92b3ba4d376a33c0f3d9434bff62560405160405180910390a1565b60008060009054906101000a900473ffffffffffffffffffffffffffffffffffffffff16905090565b610daf336114c4565b610dee576040517f08c379a0000000000000000000000000000000000000000000000000000000008152600401610de590611e91565b60405180910390fd5b610df6611552565b60006005541480610e08575060055442105b610e47576040517f08c379a0000000000000000000000000000000000000000000000000000000008152600401610e3e90611efd565b60405180910390fd5b806000600360008073ffffffffffffffffffffffffffffffffffffffff1673ffffffffffffffffffffffffffffffffffffffff168152602001908152602001600020541480610ed5575080600360008073ffffffffffffffffffffffffffffffffffffffff1673ffffffffffffffffffffffffffffffffffffffff1681526020019081526020016000205410155b610f14576040517f08c379a0000000000000000000000000000000000000000000000000000000008152600401610f0b906123b0565b60405180910390fd5b60008373ffffffffffffffffffffffffffffffffffffffff1683604051610f3a90611e30565b60006040518083038185875af1925050503d8060008114610f77576040519150601f19603f3d011682016040523d82523d6000602084013e610f7c565b606091505b505090508015610fcb57828473ffffffffffffffffffffffffffffffffffffffff167faeba90871f7da8a443096c396877004da901c92fcab3ec900a99cecddb19ec4d60405160405180910390a35b50505050565b6060600280548060200260200160405190810160405280929190818152602001828054801561105557602002820191906000526020600020905b8160009054906101000a900473ffffffffffffffffffffffffffffffffffffffff1673ffffffffffffffffffffffffffffffffffffffff168152602001906001019080831161100b575b5050505050905090565b6110676113e4565b80156111c757600047905060007fa9059cbb2ab09eb219583f4a59a5d0623ade346d962bcd4e46b11da047c9049b33836040516024016110a892919061233b565b604051602081830303815290604052907bffffffffffffffffffffffffffffffffffffffffffffffffffffffff19166020820180517bffffffffffffffffffffffffffffffffffffffffffffffffffffffff8381831617835250505050905060008573ffffffffffffffffffffffffffffffffffffffff168260405161112e9190612187565b6000604051808303816000865af19150503d806000811461116b576040519150601f19603f3d011682016040523d82523d6000602084013e611170565b606091505b5050905080156111bf57828673ffffffffffffffffffffffffffffffffffffffff167fbe7426aee8a34d0263892b55ce65ce81d8f4c806eb4719e59015ea49feb92d2260405160405180910390a35b505050611317565b60007fa9059cbb2ab09eb219583f4a59a5d0623ade346d962bcd4e46b11da047c9049b33846040516024016111fd92919061233b565b604051602081830303815290604052907bffffffffffffffffffffffffffffffffffffffffffffffffffffffff19166020820180517bffffffffffffffffffffffffffffffffffffffffffffffffffffffff8381831617835250505050905060008473ffffffffffffffffffffffffffffffffffffffff16826040516112839190612187565b6000604051808303816000865af19150503d80600081146112c0576040519150601f19603f3d011682016040523d82523d6000602084013e6112c5565b606091505b50509050801561131457838573ffffffffffffffffffffffffffffffffffffffff167fbe7426aee8a34d0263892b55ce65ce81d8f4c806eb4719e59015ea49feb92d2260405160405180910390a35b50505b505050565b60055481565b6002818154811061133257600080fd5b906000526020600020016000915054906101000a900473ffffffffffffffffffffffffffffffffffffffff1681565b6113696113e4565b600073ffffffffffffffffffffffffffffffffffffffff168173ffffffffffffffffffffffffffffffffffffffff16036113d8576040517f08c379a00000000000000000000000000000000000000000000000000000000081526004016113cf90612442565b60405180910390fd5b6113e18161159c565b50565b6113ec6116c3565b73ffffffffffffffffffffffffffffffffffffffff1661140a610d7d565b73ffffffffffffffffffffffffffffffffffffffff1614611460576040517f08c379a0000000000000000000000000000000000000000000000000000000008152600401611457906124ae565b60405180910390fd5b565b61146a6116cb565b60008060146101000a81548160ff0219169083151502179055507f5db9ee0a495bf2e6ff9c91a7834c1ba4fdd244a5e8aa4e537bd38aeae4b073aa6114ad6116c3565b6040516114ba9190611be4565b60405180910390a1565b60008073ffffffffffffffffffffffffffffffffffffffff168273ffffffffffffffffffffffffffffffffffffffff16036114fe57600080fd5b600160008373ffffffffffffffffffffffffffffffffffffffff1673ffffffffffffffffffffffffffffffffffffffff16815260200190815260200160002060009054906101000a900460ff169050919050565b61155a6105f2565b1561159a576040517f08c379a00000000000000000000000000000000000000000000000000000000081526004016115919061251a565b60405180910390fd5b565b60008060009054906101000a900473ffffffffffffffffffffffffffffffffffffffff169050816000806101000a81548173ffffffffffffffffffffffffffffffffffffffff021916908373ffffffffffffffffffffffffffffffffffffffff1602179055508173ffffffffffffffffffffffffffffffffffffffff168173ffffffffffffffffffffffffffffffffffffffff167f8be0079c531659141344cd1fd0a4f28419497f9722a3daafe3b4186f6b6457e060405160405180910390a35050565b611668611552565b6001600060146101000a81548160ff0219169083151502179055507f62e78cea01bee320cd4e420270b5ea74000d11b0c9f74754ebdbfc544b05a2586116ac6116c3565b6040516116b99190611be4565b60405180910390a1565b600033905090565b6116d36105f2565b611712576040517f08c379a000000000000000000000000000000000000000000000000000000000815260040161170990612586565b60405180910390fd5b565b600081519050919050565b600082825260208201905092915050565b60005b8381101561174e578082015181840152602081019050611733565b60008484015250505050565b6000601f19601f8301169050919050565b600061177682611714565b611780818561171f565b9350611790818560208601611730565b6117998161175a565b840191505092915050565b600060208201905081810360008301526117be818461176b565b905092915050565b6000604051905090565b600080fd5b600080fd5b6000819050919050565b6117ed816117da565b81146117f857600080fd5b50565b60008135905061180a816117e4565b92915050565b60008115159050919050565b61182581611810565b811461183057600080fd5b50565b6000813590506118428161181c565b92915050565b6000806040838503121561185f5761185e6117d0565b5b600061186d858286016117fb565b925050602061187e85828601611833565b9150509250929050565b61189181611810565b82525050565b60006020820190506118ac6000830184611888565b92915050565b600073ffffffffffffffffffffffffffffffffffffffff82169050919050565b60006118dd826118b2565b9050919050565b6118ed816118d2565b81146118f857600080fd5b50565b60008135905061190a816118e4565b92915050565b600080fd5b600080fd5b7f4e487b7100000000000000000000000000000000000000000000000000000000600052604160045260246000fd5b6119528261175a565b810181811067ffffffffffffffff821117156119715761197061191a565b5b80604052505050565b60006119846117c6565b90506119908282611949565b919050565b600067ffffffffffffffff8211156119b0576119af61191a565b5b6119b98261175a565b9050602081019050919050565b82818337600083830152505050565b60006119e86119e384611995565b61197a565b905082815260208101848484011115611a0457611a03611915565b5b611a0f8482856119c6565b509392505050565b600082601f830112611a2c57611a2b611910565b5b8135611a3c8482602086016119d5565b91505092915050565b600080600060608486031215611a5e57611a5d6117d0565b5b6000611a6c868287016118fb565b9350506020611a7d868287016117fb565b925050604084013567ffffffffffffffff811115611a9e57611a9d6117d5565b5b611aaa86828701611a17565b9150509250925092565b600081519050919050565b600082825260208201905092915050565b6000611adb82611ab4565b611ae58185611abf565b9350611af5818560208601611730565b611afe8161175a565b840191505092915050565b60006020820190508181036000830152611b238184611ad0565b905092915050565b600060208284031215611b4157611b406117d0565b5b6000611b4f848285016118fb565b91505092915050565b611b61816117da565b82525050565b6000602082019050611b7c6000830184611b58565b92915050565b600080600060608486031215611b9b57611b9a6117d0565b5b6000611ba9868287016118fb565b9350506020611bba868287016118fb565b9250506040611bcb868287016117fb565b9150509250925092565b611bde816118d2565b82525050565b6000602082019050611bf96000830184611bd5565b92915050565b60008060408385031215611c1657611c156117d0565b5b6000611c24858286016118fb565b9250506020611c35858286016117fb565b9150509250929050565b600081519050919050565b600082825260208201905092915050565b6000819050602082019050919050565b611c74816118d2565b82525050565b6000611c868383611c6b565b60208301905092915050565b6000602082019050919050565b6000611caa82611c3f565b611cb48185611c4a565b9350611cbf83611c5b565b8060005b83811015611cf0578151611cd78882611c7a565b9750611ce283611c92565b925050600181019050611cc3565b5085935050505092915050565b60006020820190508181036000830152611d178184611c9f565b905092915050565b600080600060608486031215611d3857611d376117d0565b5b6000611d46868287016118fb565b9350506020611d57868287016117fb565b9250506040611d6886828701611833565b9150509250925092565b600060208284031215611d8857611d876117d0565b5b6000611d96848285016117fb565b91505092915050565b7f4e487b7100000000000000000000000000000000000000000000000000000000600052602260045260246000fd5b60006002820490506001821680611de657607f821691505b602082108103611df957611df8611d9f565b5b50919050565b600081905092915050565b50565b6000611e1a600083611dff565b9150611e2582611e0a565b600082019050919050565b6000611e3b82611e0d565b9150819050919050565b7f43616c6c6572206973206e6f742074686520636f6e74726f6c6c657200000000600082015250565b6000611e7b601c8361171f565b9150611e8682611e45565b602082019050919050565b60006020820190508181036000830152611eaa81611e6e565b9050919050565b7f506f642068617320657870697265640000000000000000000000000000000000600082015250565b6000611ee7600f8361171f565b9150611ef282611eb1565b602082019050919050565b60006020820190508181036000830152611f1681611eda565b9050919050565b7f496e73756666696369656e742062616c616e6365000000000000000000000000600082015250565b6000611f5360148361171f565b9150611f5e82611f1d565b602082019050919050565b60006020820190508181036000830152611f8281611f46565b9050919050565b7f435245415445206f7065726174696f6e7320726571756972652074686520726560008201527f636569766572206164647265737320746f20626520656d707479000000000000602082015250565b6000611fe5603a8361171f565b9150611ff082611f89565b604082019050919050565b6000602082019050818103600083015261201481611fd8565b9050919050565b7f4e6f20636f6e74726163742062797465636f64652070726f7669646564000000600082015250565b6000612051601d8361171f565b915061205c8261201b565b602082019050919050565b6000602082019050818103600083015261208081612044565b9050919050565b7f436f756c64206e6f74206465706c6f7920636f6e747261637400000000000000600082015250565b60006120bd60198361171f565b91506120c882612087565b602082019050919050565b600060208201905081810360008301526120ec816120b0565b9050919050565b60008160601b9050919050565b600061210b826120f3565b9050919050565b600061211d82612100565b9050919050565b612135612130826118d2565b612112565b82525050565b60006121478284612124565b60148201915081905092915050565b600061216182611ab4565b61216b8185611dff565b935061217b818560208601611730565b80840191505092915050565b60006121938284612156565b915081905092915050565b6000819050602082019050919050565b60007fffffffff0000000000000000000000000000000000000000000000000000000082169050919050565b60006121e682516121ae565b80915050919050565b600082821b905092915050565b600061220782611ab4565b826122118461219e565b905061221c816121da565b9250600482101561225c576122577fffffffff00000000000000000000000000000000000000000000000000000000836004036008026121ef565b831692505b5050919050565b61226c816121ae565b82525050565b60006060820190506122876000830186611bd5565b6122946020830185611b58565b6122a16040830184612263565b949350505050565b7f416d6f756e742065786365656473204552433230207370656e64696e67206c6960008201527f6d69740000000000000000000000000000000000000000000000000000000000602082015250565b600061230560238361171f565b9150612310826122a9565b604082019050919050565b60006020820190508181036000830152612334816122f8565b9050919050565b60006040820190506123506000830185611bd5565b61235d6020830184611b58565b9392505050565b7f416d6f756e742065786365656473207370656e64696e67206c696d6974000000600082015250565b600061239a601d8361171f565b91506123a582612364565b602082019050919050565b600060208201905081810360008301526123c98161238d565b9050919050565b7f4f776e61626c653a206e6577206f776e657220697320746865207a65726f206160008201527f6464726573730000000000000000000000000000000000000000000000000000602082015250565b600061242c60268361171f565b9150612437826123d0565b604082019050919050565b6000602082019050818103600083015261245b8161241f565b9050919050565b7f4f776e61626c653a2063616c6c6572206973206e6f7420746865206f776e6572600082015250565b600061249860208361171f565b91506124a382612462565b602082019050919050565b600060208201905081810360008301526124c78161248b565b9050919050565b7f5061757361626c653a2070617573656400000000000000000000000000000000600082015250565b600061250460108361171f565b915061250f826124ce565b602082019050919050565b60006020820190508181036000830152612533816124f7565b9050919050565b7f5061757361626c653a206e6f7420706175736564000000000000000000000000600082015250565b600061257060148361171f565b915061257b8261253a565b602082019050919050565b6000602082019050818103600083015261259f81612563565b905091905056fea26469706673582212206c4054b8ea614ab50bed2277dbbefed9e506258a221de5cade00ce7befb3c0e264736f6c63430008110033",
  "linkReferences": {},
  "deployedLinkReferences": {}
}