{
  "_format": "hh-sol-artifact-1",
  "contractName": "Paypod",
  "sourceName": "contracts/Paypod.sol",
  "abi": [
    {
      "inputs": [
        {
          "internalType": "address",
          "name": "_owner",
          "type": "address"
        },
        {
          "internalType": "address",
          "name": "_controller",
          "type": "address"
        }
      ],
      "stateMutability": "nonpayable",
      "type": "constructor"
    },
    {
      "inputs": [],
      "name": "AmountsDoesNotMatchTokens",
      "type": "error"
    },
    {
      "inputs": [],
      "name": "GasLimitsDoesNotMatchTokens",
      "type": "error"
    },
    {
      "inputs": [],
      "name": "RecipientsIsEmpty",
      "type": "error"
    },
    {
      "inputs": [],
      "name": "TokenAddressesIsEmpty",
      "type": "error"
    },
    {
      "anonymous": false,
      "inputs": [
        {
          "indexed": true,
          "internalType": "address",
          "name": "to",
          "type": "address"
        },
        {
          "indexed": true,
          "internalType": "uint256",
          "name": "value",
          "type": "uint256"
        },
        {
          "indexed": false,
          "internalType": "bytes4",
          "name": "data",
          "type": "bytes4"
        }
      ],
      "name": "Call",
      "type": "event"
    },
    {
      "anonymous": false,
      "inputs": [
        {
          "indexed": true,
          "internalType": "address",
          "name": "contractAddress",
          "type": "address"
        },
        {
          "indexed": true,
          "internalType": "uint256",
          "name": "value",
          "type": "uint256"
        }
      ],
      "name": "Create",
      "type": "event"
    },
    {
      "anonymous": false,
      "inputs": [
        {
          "indexed": true,
          "internalType": "address",
          "name": "previousOwner",
          "type": "address"
        },
        {
          "indexed": true,
          "internalType": "address",
          "name": "newOwner",
          "type": "address"
        }
      ],
      "name": "OwnershipTransferred",
      "type": "event"
    },
    {
      "anonymous": false,
      "inputs": [],
      "name": "Pause",
      "type": "event"
    },
    {
      "anonymous": false,
      "inputs": [
        {
          "indexed": false,
          "internalType": "address",
          "name": "account",
          "type": "address"
        }
      ],
      "name": "Paused",
      "type": "event"
    },
    {
      "anonymous": false,
      "inputs": [
        {
          "indexed": true,
          "internalType": "bytes32",
          "name": "role",
          "type": "bytes32"
        },
        {
          "indexed": true,
          "internalType": "bytes32",
          "name": "previousAdminRole",
          "type": "bytes32"
        },
        {
          "indexed": true,
          "internalType": "bytes32",
          "name": "newAdminRole",
          "type": "bytes32"
        }
      ],
      "name": "RoleAdminChanged",
      "type": "event"
    },
    {
      "anonymous": false,
      "inputs": [
        {
          "indexed": true,
          "internalType": "bytes32",
          "name": "role",
          "type": "bytes32"
        },
        {
          "indexed": true,
          "internalType": "address",
          "name": "account",
          "type": "address"
        },
        {
          "indexed": true,
          "internalType": "address",
          "name": "sender",
          "type": "address"
        }
      ],
      "name": "RoleGranted",
      "type": "event"
    },
    {
      "anonymous": false,
      "inputs": [
        {
          "indexed": true,
          "internalType": "bytes32",
          "name": "role",
          "type": "bytes32"
        },
        {
          "indexed": true,
          "internalType": "address",
          "name": "account",
          "type": "address"
        },
        {
          "indexed": true,
          "internalType": "address",
          "name": "sender",
          "type": "address"
        }
      ],
      "name": "RoleRevoked",
      "type": "event"
    },
    {
      "anonymous": false,
      "inputs": [
        {
          "indexed": true,
          "internalType": "address",
          "name": "recipient",
          "type": "address"
        },
        {
          "indexed": true,
          "internalType": "uint256",
          "name": "amount",
          "type": "uint256"
        }
      ],
      "name": "Spend",
      "type": "event"
    },
    {
      "anonymous": false,
      "inputs": [
        {
          "indexed": true,
          "internalType": "address",
          "name": "tokenAddress",
          "type": "address"
        },
        {
          "indexed": true,
          "internalType": "address",
          "name": "recipient",
          "type": "address"
        },
        {
          "indexed": true,
          "internalType": "uint256",
          "name": "amount",
          "type": "uint256"
        }
      ],
      "name": "SpendERC20",
      "type": "event"
    },
    {
      "anonymous": false,
      "inputs": [],
      "name": "Unpause",
      "type": "event"
    },
    {
      "anonymous": false,
      "inputs": [
        {
          "indexed": false,
          "internalType": "address",
          "name": "account",
          "type": "address"
        }
      ],
      "name": "Unpaused",
      "type": "event"
    },
    {
      "anonymous": false,
      "inputs": [
        {
          "indexed": true,
          "internalType": "uint256",
          "name": "amount",
          "type": "uint256"
        }
      ],
      "name": "Withdraw",
      "type": "event"
    },
    {
      "anonymous": false,
      "inputs": [
        {
          "indexed": true,
          "internalType": "address",
          "name": "tokenAddress",
          "type": "address"
        },
        {
          "indexed": true,
          "internalType": "uint256",
          "name": "amount",
          "type": "uint256"
        }
      ],
      "name": "WithdrawERC20",
      "type": "event"
    },
    {
      "inputs": [],
      "name": "DEFAULT_ADMIN_ROLE",
      "outputs": [
        {
          "internalType": "bytes32",
          "name": "",
          "type": "bytes32"
        }
      ],
      "stateMutability": "view",
      "type": "function"
    },
    {
      "inputs": [],
      "name": "PAYPOD_CONTROLLER",
      "outputs": [
        {
          "internalType": "bytes32",
          "name": "",
          "type": "bytes32"
        }
      ],
      "stateMutability": "view",
      "type": "function"
    },
    {
      "inputs": [
        {
          "internalType": "uint256",
          "name": "operation",
          "type": "uint256"
        },
        {
          "internalType": "address",
          "name": "to",
          "type": "address"
        },
        {
          "internalType": "uint256",
          "name": "value",
          "type": "uint256"
        },
        {
          "internalType": "bytes",
          "name": "data",
          "type": "bytes"
        }
      ],
      "name": "call",
      "outputs": [
        {
          "internalType": "bytes",
          "name": "result",
          "type": "bytes"
        }
      ],
      "stateMutability": "payable",
      "type": "function"
    },
    {
      "inputs": [
        {
          "internalType": "bytes32",
          "name": "role",
          "type": "bytes32"
        }
      ],
      "name": "getRoleAdmin",
      "outputs": [
        {
          "internalType": "bytes32",
          "name": "",
          "type": "bytes32"
        }
      ],
      "stateMutability": "view",
      "type": "function"
    },
    {
      "inputs": [
        {
          "internalType": "bytes32",
          "name": "role",
          "type": "bytes32"
        },
        {
          "internalType": "address",
          "name": "account",
          "type": "address"
        }
      ],
      "name": "grantRole",
      "outputs": [],
      "stateMutability": "nonpayable",
      "type": "function"
    },
    {
      "inputs": [
        {
          "internalType": "bytes32",
          "name": "role",
          "type": "bytes32"
        },
        {
          "internalType": "address",
          "name": "account",
          "type": "address"
        }
      ],
      "name": "hasRole",
      "outputs": [
        {
          "internalType": "bool",
          "name": "",
          "type": "bool"
        }
      ],
      "stateMutability": "view",
      "type": "function"
    },
    {
      "inputs": [],
      "name": "owner",
      "outputs": [
        {
          "internalType": "address",
          "name": "",
          "type": "address"
        }
      ],
      "stateMutability": "view",
      "type": "function"
    },
    {
      "inputs": [],
      "name": "pause",
      "outputs": [],
      "stateMutability": "nonpayable",
      "type": "function"
    },
    {
      "inputs": [],
      "name": "paused",
      "outputs": [
        {
          "internalType": "bool",
          "name": "",
          "type": "bool"
        }
      ],
      "stateMutability": "view",
      "type": "function"
    },
    {
      "inputs": [],
      "name": "renounceOwnership",
      "outputs": [],
      "stateMutability": "nonpayable",
      "type": "function"
    },
    {
      "inputs": [
        {
          "internalType": "bytes32",
          "name": "role",
          "type": "bytes32"
        },
        {
          "internalType": "address",
          "name": "account",
          "type": "address"
        }
      ],
      "name": "renounceRole",
      "outputs": [],
      "stateMutability": "nonpayable",
      "type": "function"
    },
    {
      "inputs": [
        {
          "internalType": "bytes32",
          "name": "role",
          "type": "bytes32"
        },
        {
          "internalType": "address",
          "name": "account",
          "type": "address"
        }
      ],
      "name": "revokeRole",
      "outputs": [],
      "stateMutability": "nonpayable",
      "type": "function"
    },
    {
      "inputs": [
        {
          "internalType": "address[]",
          "name": "_recipients",
          "type": "address[]"
        },
        {
          "internalType": "uint256",
          "name": "_amount",
          "type": "uint256"
        }
      ],
      "name": "spend",
      "outputs": [],
      "stateMutability": "nonpayable",
      "type": "function"
    },
    {
      "inputs": [
        {
          "internalType": "address",
          "name": "_tokenAddress",
          "type": "address"
        },
        {
          "internalType": "address[]",
          "name": "_recipients",
          "type": "address[]"
        },
        {
          "internalType": "uint256",
          "name": "_amount",
          "type": "uint256"
        }
      ],
      "name": "spendERC20",
      "outputs": [],
      "stateMutability": "nonpayable",
      "type": "function"
    },
    {
      "inputs": [
        {
          "internalType": "bytes4",
          "name": "interfaceId",
          "type": "bytes4"
        }
      ],
      "name": "supportsInterface",
      "outputs": [
        {
          "internalType": "bool",
          "name": "",
          "type": "bool"
        }
      ],
      "stateMutability": "view",
      "type": "function"
    },
    {
      "inputs": [
        {
          "internalType": "address",
          "name": "newOwner",
          "type": "address"
        }
      ],
      "name": "transferOwnership",
      "outputs": [],
      "stateMutability": "nonpayable",
      "type": "function"
    },
    {
      "inputs": [],
      "name": "unpause",
      "outputs": [],
      "stateMutability": "nonpayable",
      "type": "function"
    },
    {
      "inputs": [
        {
          "internalType": "uint256",
          "name": "_amount",
          "type": "uint256"
        },
        {
          "internalType": "bool",
          "name": "_withdrawAll",
          "type": "bool"
        }
      ],
      "name": "withdraw",
      "outputs": [],
      "stateMutability": "nonpayable",
      "type": "function"
    },
    {
      "inputs": [
        {
          "internalType": "address",
          "name": "_tokenAddress",
          "type": "address"
        },
        {
          "internalType": "uint256",
          "name": "_amount",
          "type": "uint256"
        },
        {
          "internalType": "bool",
          "name": "_withdrawAll",
          "type": "bool"
        }
      ],
      "name": "withdrawERC20",
      "outputs": [],
      "stateMutability": "nonpayable",
      "type": "function"
    },
    {
      "stateMutability": "payable",
      "type": "receive"
    }
  ],
  "bytecode": "0x60806040523480156200001157600080fd5b5060405162003416380380620034168339818101604052810190620000379190620004c9565b620000576200004b620000d160201b60201c565b620000d960201b60201c565b60008060146101000a81548160ff021916908315150217905550620000866000801b836200019d60201b60201c565b620000b87fc323592714084f52382df58520c164240f45adb995ab734b3f0e38cc0e1756f3826200019d60201b60201c565b620000c982620001b360201b60201c565b50506200062b565b600033905090565b60008060009054906101000a900473ffffffffffffffffffffffffffffffffffffffff169050816000806101000a81548173ffffffffffffffffffffffffffffffffffffffff021916908373ffffffffffffffffffffffffffffffffffffffff1602179055508173ffffffffffffffffffffffffffffffffffffffff168173ffffffffffffffffffffffffffffffffffffffff167f8be0079c531659141344cd1fd0a4f28419497f9722a3daafe3b4186f6b6457e060405160405180910390a35050565b620001af82826200024960201b60201c565b5050565b620001c36200033a60201b60201c565b600073ffffffffffffffffffffffffffffffffffffffff168173ffffffffffffffffffffffffffffffffffffffff160362000235576040517f08c379a00000000000000000000000000000000000000000000000000000000081526004016200022c9062000597565b60405180910390fd5b6200024681620000d960201b60201c565b50565b6200025b8282620003cb60201b60201c565b6200033657600180600084815260200190815260200160002060000160008373ffffffffffffffffffffffffffffffffffffffff1673ffffffffffffffffffffffffffffffffffffffff16815260200190815260200160002060006101000a81548160ff021916908315150217905550620002db620000d160201b60201c565b73ffffffffffffffffffffffffffffffffffffffff168173ffffffffffffffffffffffffffffffffffffffff16837f2f8788117e7eff1d82e926ec794901d17c78024a50270940304540a733656f0d60405160405180910390a45b5050565b6200034a620000d160201b60201c565b73ffffffffffffffffffffffffffffffffffffffff16620003706200043660201b60201c565b73ffffffffffffffffffffffffffffffffffffffff1614620003c9576040517f08c379a0000000000000000000000000000000000000000000000000000000008152600401620003c09062000609565b60405180910390fd5b565b60006001600084815260200190815260200160002060000160008373ffffffffffffffffffffffffffffffffffffffff1673ffffffffffffffffffffffffffffffffffffffff16815260200190815260200160002060009054906101000a900460ff16905092915050565b60008060009054906101000a900473ffffffffffffffffffffffffffffffffffffffff16905090565b600080fd5b600073ffffffffffffffffffffffffffffffffffffffff82169050919050565b6000620004918262000464565b9050919050565b620004a38162000484565b8114620004af57600080fd5b50565b600081519050620004c38162000498565b92915050565b60008060408385031215620004e357620004e26200045f565b5b6000620004f385828601620004b2565b92505060206200050685828601620004b2565b9150509250929050565b600082825260208201905092915050565b7f4f776e61626c653a206e6577206f776e657220697320746865207a65726f206160008201527f6464726573730000000000000000000000000000000000000000000000000000602082015250565b60006200057f60268362000510565b91506200058c8262000521565b604082019050919050565b60006020820190508181036000830152620005b28162000570565b9050919050565b7f4f776e61626c653a2063616c6c6572206973206e6f7420746865206f776e6572600082015250565b6000620005f160208362000510565b9150620005fe82620005b9565b602082019050919050565b600060208201905081810360008301526200062481620005e2565b9050919050565b612ddb806200063b6000396000f3fe6080604052600436106101185760003560e01c806365e8eb2b116100a057806391d148541161006457806391d1485414610361578063a217fddf1461039e578063bb80f262146103c9578063d547741f146103f2578063f2fde38b1461041b5761011f565b806365e8eb2b146102af578063715018a6146102d857806377cae758146102ef5780638456cb591461031f5780638da5cb5b146103365761011f565b80632f2ff15d116100e75780632f2ff15d146101f257806336568abe1461021b57806338d07436146102445780633f4ba83a1461026d5780635c975abb146102845761011f565b806301ffc9a71461012457806307827f0a14610161578063114e9b9c1461018c578063248a9ca3146101b55761011f565b3661011f57005b600080fd5b34801561013057600080fd5b5061014b60048036038101906101469190611aee565b610444565b6040516101589190611b36565b60405180910390f35b34801561016d57600080fd5b506101766104be565b6040516101839190611b6a565b60405180910390f35b34801561019857600080fd5b506101b360048036038101906101ae9190611d72565b6104e2565b005b3480156101c157600080fd5b506101dc60048036038101906101d79190611dfa565b610625565b6040516101e99190611b6a565b60405180910390f35b3480156101fe57600080fd5b5061021960048036038101906102149190611e27565b610645565b005b34801561022757600080fd5b50610242600480360381019061023d9190611e27565b610666565b005b34801561025057600080fd5b5061026b60048036038101906102669190611e93565b6106e9565b005b34801561027957600080fd5b50610282610849565b005b34801561029057600080fd5b50610299610887565b6040516102a69190611b36565b60405180910390f35b3480156102bb57600080fd5b506102d660048036038101906102d19190611ed3565b61089d565b005b3480156102e457600080fd5b506102ed61098f565b005b61030960048036038101906103049190611ff7565b6109a3565b60405161031691906120f9565b60405180910390f35b34801561032b57600080fd5b50610334610d11565b005b34801561034257600080fd5b5061034b610d4f565b604051610358919061212a565b60405180910390f35b34801561036d57600080fd5b5061038860048036038101906103839190611e27565b610d78565b6040516103959190611b36565b60405180910390f35b3480156103aa57600080fd5b506103b3610de3565b6040516103c09190611b6a565b60405180910390f35b3480156103d557600080fd5b506103f060048036038101906103eb9190612145565b610dea565b005b3480156103fe57600080fd5b5061041960048036038101906104149190611e27565b610f20565b005b34801561042757600080fd5b50610442600480360381019061043d9190612198565b610f41565b005b60007f7965db0b000000000000000000000000000000000000000000000000000000007bffffffffffffffffffffffffffffffffffffffffffffffffffffffff1916827bffffffffffffffffffffffffffffffffffffffffffffffffffffffff191614806104b757506104b682610fc4565b5b9050919050565b7fc323592714084f52382df58520c164240f45adb995ab734b3f0e38cc0e1756f381565b7fc323592714084f52382df58520c164240f45adb995ab734b3f0e38cc0e1756f361050c8161102e565b610514611042565b60005b835181101561061f576000848281518110610535576105346121c5565b5b602002602001015173ffffffffffffffffffffffffffffffffffffffff168460405161056090612225565b60006040518083038185875af1925050503d806000811461059d576040519150601f19603f3d011682016040523d82523d6000602084013e6105a2565b606091505b50509050801561060b57838583815181106105c0576105bf6121c5565b5b602002602001015173ffffffffffffffffffffffffffffffffffffffff167faeba90871f7da8a443096c396877004da901c92fcab3ec900a99cecddb19ec4d60405160405180910390a35b50808061061790612269565b915050610517565b50505050565b600060016000838152602001908152602001600020600101549050919050565b61064e82610625565b6106578161102e565b610661838361108c565b505050565b61066e61116c565b73ffffffffffffffffffffffffffffffffffffffff168173ffffffffffffffffffffffffffffffffffffffff16146106db576040517f08c379a00000000000000000000000000000000000000000000000000000000081526004016106d290612334565b60405180910390fd5b6106e58282611174565b5050565b6106f1611256565b80156107a357600047905060003373ffffffffffffffffffffffffffffffffffffffff168260405161072290612225565b60006040518083038185875af1925050503d806000811461075f576040519150601f19603f3d011682016040523d82523d6000602084013e610764565b606091505b50509050801561079c57817f5b6b431d4476a211bb7d41c20d1aab9ae2321deee0d20be3d9fc9b1093fa6e3d60405160405180910390a25b5050610845565b60003373ffffffffffffffffffffffffffffffffffffffff16836040516107c990612225565b60006040518083038185875af1925050503d8060008114610806576040519150601f19603f3d011682016040523d82523d6000602084013e61080b565b606091505b50509050801561084357827f5b6b431d4476a211bb7d41c20d1aab9ae2321deee0d20be3d9fc9b1093fa6e3d60405160405180910390a25b505b5050565b610851611256565b6108596112d4565b7f7805862f689e2f13df9f062ff482ad3ad112aca9e0847911ed832e158c525b3360405160405180910390a1565b60008060149054906101000a900460ff16905090565b7fc323592714084f52382df58520c164240f45adb995ab734b3f0e38cc0e1756f36108c78161102e565b6108cf611042565b60005b835181101561098857610900858583815181106108f2576108f16121c5565b5b602002602001015185611336565b82848281518110610914576109136121c5565b5b602002602001015173ffffffffffffffffffffffffffffffffffffffff168673ffffffffffffffffffffffffffffffffffffffff167f461e882263d73780411f38de84868d70e01dd3a843ef735a9bcfe0394fcded5a60405160405180910390a4808061098090612269565b9150506108d2565b5050505050565b610997611256565b6109a160006113bc565b565b60607fc323592714084f52382df58520c164240f45adb995ab734b3f0e38cc0e1756f36109cf8161102e565b83471015610a12576040517f08c379a0000000000000000000000000000000000000000000000000000000008152600401610a09906123a0565b60405180910390fd5b60008603610b2b576000808673ffffffffffffffffffffffffffffffffffffffff168686604051610a4391906123f1565b60006040518083038185875af1925050503d8060008114610a80576040519150601f19603f3d011682016040523d82523d6000602084013e610a85565b606091505b5091509150610aca82826040518060400160405280601b81526020017f4572726f7220766572696679696e672063616c6c20726573756c740000000000815250611480565b9350858773ffffffffffffffffffffffffffffffffffffffff167f4dd1eb0688b5a19d6b147085fa02958ee547aaf0f33072355d7cdb8023d99b3f87610b0f9061243a565b604051610b1c91906124b0565b60405180910390a35050610d08565b60018603610ccd57600073ffffffffffffffffffffffffffffffffffffffff168573ffffffffffffffffffffffffffffffffffffffff1614610ba2576040517f08c379a0000000000000000000000000000000000000000000000000000000008152600401610b9990612517565b60405180910390fd5b6000835103610be6576040517f08c379a0000000000000000000000000000000000000000000000000000000008152600401610bdd906125a9565b60405180910390fd5b600083516020850186f09050600073ffffffffffffffffffffffffffffffffffffffff168173ffffffffffffffffffffffffffffffffffffffff1603610c61576040517f08c379a0000000000000000000000000000000000000000000000000000000008152600401610c5890612615565b60405180910390fd5b848173ffffffffffffffffffffffffffffffffffffffff167fcc9018de05b5f497ee7618d8830568d8ac2d45d0671b73d8f71c67e824122ec760405160405180910390a380604051602001610cb6919061267d565b604051602081830303815290604052925050610d08565b6040517f08c379a0000000000000000000000000000000000000000000000000000000008152600401610cff906126e4565b60405180910390fd5b50949350505050565b610d19611256565b610d216114e7565b7f6985a02210a168e66602d3235cb6db0e70f92b3ba4d376a33c0f3d9434bff62560405160405180910390a1565b60008060009054906101000a900473ffffffffffffffffffffffffffffffffffffffff16905090565b60006001600084815260200190815260200160002060000160008373ffffffffffffffffffffffffffffffffffffffff1673ffffffffffffffffffffffffffffffffffffffff16815260200190815260200160002060009054906101000a900460ff16905092915050565b6000801b81565b610df2611256565b8015610ecb5760008373ffffffffffffffffffffffffffffffffffffffff166370a08231306040518263ffffffff1660e01b8152600401610e33919061212a565b602060405180830381865afa158015610e50573d6000803e3d6000fd5b505050506040513d601f19601f82011682018060405250810190610e749190612719565b9050610e81843383611336565b808473ffffffffffffffffffffffffffffffffffffffff167fbe7426aee8a34d0263892b55ce65ce81d8f4c806eb4719e59015ea49feb92d2260405160405180910390a350610f1b565b610ed6833384611336565b818373ffffffffffffffffffffffffffffffffffffffff167fbe7426aee8a34d0263892b55ce65ce81d8f4c806eb4719e59015ea49feb92d2260405160405180910390a35b505050565b610f2982610625565b610f328161102e565b610f3c8383611174565b505050565b610f49611256565b600073ffffffffffffffffffffffffffffffffffffffff168173ffffffffffffffffffffffffffffffffffffffff1603610fb8576040517f08c379a0000000000000000000000000000000000000000000000000000000008152600401610faf906127b8565b60405180910390fd5b610fc1816113bc565b50565b60007f01ffc9a7000000000000000000000000000000000000000000000000000000007bffffffffffffffffffffffffffffffffffffffffffffffffffffffff1916827bffffffffffffffffffffffffffffffffffffffffffffffffffffffff1916149050919050565b61103f8161103a61116c565b61154a565b50565b61104a610887565b1561108a576040517f08c379a000000000000000000000000000000000000000000000000000000000815260040161108190612824565b60405180910390fd5b565b6110968282610d78565b61116857600180600084815260200190815260200160002060000160008373ffffffffffffffffffffffffffffffffffffffff1673ffffffffffffffffffffffffffffffffffffffff16815260200190815260200160002060006101000a81548160ff02191690831515021790555061110d61116c565b73ffffffffffffffffffffffffffffffffffffffff168173ffffffffffffffffffffffffffffffffffffffff16837f2f8788117e7eff1d82e926ec794901d17c78024a50270940304540a733656f0d60405160405180910390a45b5050565b600033905090565b61117e8282610d78565b156112525760006001600084815260200190815260200160002060000160008373ffffffffffffffffffffffffffffffffffffffff1673ffffffffffffffffffffffffffffffffffffffff16815260200190815260200160002060006101000a81548160ff0219169083151502179055506111f761116c565b73ffffffffffffffffffffffffffffffffffffffff168173ffffffffffffffffffffffffffffffffffffffff16837ff6391f5c32d9c69d2a47ea670b442974b53935d1edc7fd64eb21e047a839171b60405160405180910390a45b5050565b61125e61116c565b73ffffffffffffffffffffffffffffffffffffffff1661127c610d4f565b73ffffffffffffffffffffffffffffffffffffffff16146112d2576040517f08c379a00000000000000000000000000000000000000000000000000000000081526004016112c990612890565b60405180910390fd5b565b6112dc6115e7565b60008060146101000a81548160ff0219169083151502179055507f5db9ee0a495bf2e6ff9c91a7834c1ba4fdd244a5e8aa4e537bd38aeae4b073aa61131f61116c565b60405161132c919061212a565b60405180910390a1565b6113b78363a9059cbb60e01b84846040516024016113559291906128bf565b604051602081830303815290604052907bffffffffffffffffffffffffffffffffffffffffffffffffffffffff19166020820180517bffffffffffffffffffffffffffffffffffffffffffffffffffffffff8381831617835250505050611630565b505050565b60008060009054906101000a900473ffffffffffffffffffffffffffffffffffffffff169050816000806101000a81548173ffffffffffffffffffffffffffffffffffffffff021916908373ffffffffffffffffffffffffffffffffffffffff1602179055508173ffffffffffffffffffffffffffffffffffffffff168173ffffffffffffffffffffffffffffffffffffffff167f8be0079c531659141344cd1fd0a4f28419497f9722a3daafe3b4186f6b6457e060405160405180910390a35050565b60608315611490578290506114e0565b6000835111156114a35782518084602001fd5b816040517f08c379a00000000000000000000000000000000000000000000000000000000081526004016114d7919061292c565b60405180910390fd5b9392505050565b6114ef611042565b6001600060146101000a81548160ff0219169083151502179055507f62e78cea01bee320cd4e420270b5ea74000d11b0c9f74754ebdbfc544b05a25861153361116c565b604051611540919061212a565b60405180910390a1565b6115548282610d78565b6115e3576115798173ffffffffffffffffffffffffffffffffffffffff1660146116f7565b6115878360001c60206116f7565b604051602001611598929190612a22565b6040516020818303038152906040526040517f08c379a00000000000000000000000000000000000000000000000000000000081526004016115da919061292c565b60405180910390fd5b5050565b6115ef610887565b61162e576040517f08c379a000000000000000000000000000000000000000000000000000000000815260040161162590612aa8565b60405180910390fd5b565b6000611692826040518060400160405280602081526020017f5361666545524332303a206c6f772d6c6576656c2063616c6c206661696c65648152508573ffffffffffffffffffffffffffffffffffffffff166119339092919063ffffffff16565b90506000815111156116f257808060200190518101906116b29190612add565b6116f1576040517f08c379a00000000000000000000000000000000000000000000000000000000081526004016116e890612b7c565b60405180910390fd5b5b505050565b60606000600283600261170a9190612b9c565b6117149190612bde565b67ffffffffffffffff81111561172d5761172c611b9b565b5b6040519080825280601f01601f19166020018201604052801561175f5781602001600182028036833780820191505090505b5090507f300000000000000000000000000000000000000000000000000000000000000081600081518110611797576117966121c5565b5b60200101907effffffffffffffffffffffffffffffffffffffffffffffffffffffffffffff1916908160001a9053507f7800000000000000000000000000000000000000000000000000000000000000816001815181106117fb576117fa6121c5565b5b60200101907effffffffffffffffffffffffffffffffffffffffffffffffffffffffffffff1916908160001a9053506000600184600261183b9190612b9c565b6118459190612bde565b90505b60018111156118e5577f3031323334353637383961626364656600000000000000000000000000000000600f861660108110611887576118866121c5565b5b1a60f81b82828151811061189e5761189d6121c5565b5b60200101907effffffffffffffffffffffffffffffffffffffffffffffffffffffffffffff1916908160001a905350600485901c9450806118de90612c12565b9050611848565b5060008414611929576040517f08c379a000000000000000000000000000000000000000000000000000000000815260040161192090612c87565b60405180910390fd5b8091505092915050565b6060611942848460008561194b565b90509392505050565b606082471015611990576040517f08c379a000000000000000000000000000000000000000000000000000000000815260040161198790612d19565b60405180910390fd5b61199985611a5f565b6119d8576040517f08c379a00000000000000000000000000000000000000000000000000000000081526004016119cf90612d85565b60405180910390fd5b6000808673ffffffffffffffffffffffffffffffffffffffff168587604051611a0191906123f1565b60006040518083038185875af1925050503d8060008114611a3e576040519150601f19603f3d011682016040523d82523d6000602084013e611a43565b606091505b5091509150611a53828286611480565b92505050949350505050565b6000808273ffffffffffffffffffffffffffffffffffffffff163b119050919050565b6000604051905090565b600080fd5b600080fd5b60007fffffffff0000000000000000000000000000000000000000000000000000000082169050919050565b611acb81611a96565b8114611ad657600080fd5b50565b600081359050611ae881611ac2565b92915050565b600060208284031215611b0457611b03611a8c565b5b6000611b1284828501611ad9565b91505092915050565b60008115159050919050565b611b3081611b1b565b82525050565b6000602082019050611b4b6000830184611b27565b92915050565b6000819050919050565b611b6481611b51565b82525050565b6000602082019050611b7f6000830184611b5b565b92915050565b600080fd5b6000601f19601f8301169050919050565b7f4e487b7100000000000000000000000000000000000000000000000000000000600052604160045260246000fd5b611bd382611b8a565b810181811067ffffffffffffffff82111715611bf257611bf1611b9b565b5b80604052505050565b6000611c05611a82565b9050611c118282611bca565b919050565b600067ffffffffffffffff821115611c3157611c30611b9b565b5b602082029050602081019050919050565b600080fd5b600073ffffffffffffffffffffffffffffffffffffffff82169050919050565b6000611c7282611c47565b9050919050565b611c8281611c67565b8114611c8d57600080fd5b50565b600081359050611c9f81611c79565b92915050565b6000611cb8611cb384611c16565b611bfb565b90508083825260208201905060208402830185811115611cdb57611cda611c42565b5b835b81811015611d045780611cf08882611c90565b845260208401935050602081019050611cdd565b5050509392505050565b600082601f830112611d2357611d22611b85565b5b8135611d33848260208601611ca5565b91505092915050565b6000819050919050565b611d4f81611d3c565b8114611d5a57600080fd5b50565b600081359050611d6c81611d46565b92915050565b60008060408385031215611d8957611d88611a8c565b5b600083013567ffffffffffffffff811115611da757611da6611a91565b5b611db385828601611d0e565b9250506020611dc485828601611d5d565b9150509250929050565b611dd781611b51565b8114611de257600080fd5b50565b600081359050611df481611dce565b92915050565b600060208284031215611e1057611e0f611a8c565b5b6000611e1e84828501611de5565b91505092915050565b60008060408385031215611e3e57611e3d611a8c565b5b6000611e4c85828601611de5565b9250506020611e5d85828601611c90565b9150509250929050565b611e7081611b1b565b8114611e7b57600080fd5b50565b600081359050611e8d81611e67565b92915050565b60008060408385031215611eaa57611ea9611a8c565b5b6000611eb885828601611d5d565b9250506020611ec985828601611e7e565b9150509250929050565b600080600060608486031215611eec57611eeb611a8c565b5b6000611efa86828701611c90565b935050602084013567ffffffffffffffff811115611f1b57611f1a611a91565b5b611f2786828701611d0e565b9250506040611f3886828701611d5d565b9150509250925092565b600080fd5b600067ffffffffffffffff821115611f6257611f61611b9b565b5b611f6b82611b8a565b9050602081019050919050565b82818337600083830152505050565b6000611f9a611f9584611f47565b611bfb565b905082815260208101848484011115611fb657611fb5611f42565b5b611fc1848285611f78565b509392505050565b600082601f830112611fde57611fdd611b85565b5b8135611fee848260208601611f87565b91505092915050565b6000806000806080858703121561201157612010611a8c565b5b600061201f87828801611d5d565b945050602061203087828801611c90565b935050604061204187828801611d5d565b925050606085013567ffffffffffffffff81111561206257612061611a91565b5b61206e87828801611fc9565b91505092959194509250565b600081519050919050565b600082825260208201905092915050565b60005b838110156120b4578082015181840152602081019050612099565b60008484015250505050565b60006120cb8261207a565b6120d58185612085565b93506120e5818560208601612096565b6120ee81611b8a565b840191505092915050565b6000602082019050818103600083015261211381846120c0565b905092915050565b61212481611c67565b82525050565b600060208201905061213f600083018461211b565b92915050565b60008060006060848603121561215e5761215d611a8c565b5b600061216c86828701611c90565b935050602061217d86828701611d5d565b925050604061218e86828701611e7e565b9150509250925092565b6000602082840312156121ae576121ad611a8c565b5b60006121bc84828501611c90565b91505092915050565b7f4e487b7100000000000000000000000000000000000000000000000000000000600052603260045260246000fd5b600081905092915050565b50565b600061220f6000836121f4565b915061221a826121ff565b600082019050919050565b600061223082612202565b9150819050919050565b7f4e487b7100000000000000000000000000000000000000000000000000000000600052601160045260246000fd5b600061227482611d3c565b91507fffffffffffffffffffffffffffffffffffffffffffffffffffffffffffffffff82036122a6576122a561223a565b5b600182019050919050565b600082825260208201905092915050565b7f416363657373436f6e74726f6c3a2063616e206f6e6c792072656e6f756e636560008201527f20726f6c657320666f722073656c660000000000000000000000000000000000602082015250565b600061231e602f836122b1565b9150612329826122c2565b604082019050919050565b6000602082019050818103600083015261234d81612311565b9050919050565b7f496e73756666696369656e742062616c616e636520696e20506f640000000000600082015250565b600061238a601b836122b1565b915061239582612354565b602082019050919050565b600060208201905081810360008301526123b98161237d565b9050919050565b60006123cb8261207a565b6123d581856121f4565b93506123e5818560208601612096565b80840191505092915050565b60006123fd82846123c0565b915081905092915050565b6000819050602082019050919050565b60006124248251611a96565b80915050919050565b600082821b905092915050565b60006124458261207a565b8261244f84612408565b905061245a81612418565b9250600482101561249a576124957fffffffff000000000000000000000000000000000000000000000000000000008360040360080261242d565b831692505b5050919050565b6124aa81611a96565b82525050565b60006020820190506124c560008301846124a1565b92915050565b7f52656365697665722061646472657373206973206e6f7420656d707479000000600082015250565b6000612501601d836122b1565b915061250c826124cb565b602082019050919050565b60006020820190508181036000830152612530816124f4565b9050919050565b7f4e6f2062797465636f64652070726f766964656420666f7220636f6e7472616360008201527f7400000000000000000000000000000000000000000000000000000000000000602082015250565b60006125936021836122b1565b915061259e82612537565b604082019050919050565b600060208201905081810360008301526125c281612586565b9050919050565b7f436f6e7472616374206465706c6f796d656e74206661696c6564000000000000600082015250565b60006125ff601a836122b1565b915061260a826125c9565b602082019050919050565b6000602082019050818103600083015261262e816125f2565b9050919050565b60008160601b9050919050565b600061264d82612635565b9050919050565b600061265f82612642565b9050919050565b61267761267282611c67565b612654565b82525050565b60006126898284612666565b60148201915081905092915050565b7f556e6b6e6f776e206f7065726174696f6e207479706500000000000000000000600082015250565b60006126ce6016836122b1565b91506126d982612698565b602082019050919050565b600060208201905081810360008301526126fd816126c1565b9050919050565b60008151905061271381611d46565b92915050565b60006020828403121561272f5761272e611a8c565b5b600061273d84828501612704565b91505092915050565b7f4f776e61626c653a206e6577206f776e657220697320746865207a65726f206160008201527f6464726573730000000000000000000000000000000000000000000000000000602082015250565b60006127a26026836122b1565b91506127ad82612746565b604082019050919050565b600060208201905081810360008301526127d181612795565b9050919050565b7f5061757361626c653a2070617573656400000000000000000000000000000000600082015250565b600061280e6010836122b1565b9150612819826127d8565b602082019050919050565b6000602082019050818103600083015261283d81612801565b9050919050565b7f4f776e61626c653a2063616c6c6572206973206e6f7420746865206f776e6572600082015250565b600061287a6020836122b1565b915061288582612844565b602082019050919050565b600060208201905081810360008301526128a98161286d565b9050919050565b6128b981611d3c565b82525050565b60006040820190506128d4600083018561211b565b6128e160208301846128b0565b9392505050565b600081519050919050565b60006128fe826128e8565b61290881856122b1565b9350612918818560208601612096565b61292181611b8a565b840191505092915050565b6000602082019050818103600083015261294681846128f3565b905092915050565b600081905092915050565b7f416363657373436f6e74726f6c3a206163636f756e7420000000000000000000600082015250565b600061298f60178361294e565b915061299a82612959565b601782019050919050565b60006129b0826128e8565b6129ba818561294e565b93506129ca818560208601612096565b80840191505092915050565b7f206973206d697373696e6720726f6c6520000000000000000000000000000000600082015250565b6000612a0c60118361294e565b9150612a17826129d6565b601182019050919050565b6000612a2d82612982565b9150612a3982856129a5565b9150612a44826129ff565b9150612a5082846129a5565b91508190509392505050565b7f5061757361626c653a206e6f7420706175736564000000000000000000000000600082015250565b6000612a926014836122b1565b9150612a9d82612a5c565b602082019050919050565b60006020820190508181036000830152612ac181612a85565b9050919050565b600081519050612ad781611e67565b92915050565b600060208284031215612af357612af2611a8c565b5b6000612b0184828501612ac8565b91505092915050565b7f5361666545524332303a204552433230206f7065726174696f6e20646964206e60008201527f6f74207375636365656400000000000000000000000000000000000000000000602082015250565b6000612b66602a836122b1565b9150612b7182612b0a565b604082019050919050565b60006020820190508181036000830152612b9581612b59565b9050919050565b6000612ba782611d3c565b9150612bb283611d3c565b9250828202612bc081611d3c565b91508282048414831517612bd757612bd661223a565b5b5092915050565b6000612be982611d3c565b9150612bf483611d3c565b9250828201905080821115612c0c57612c0b61223a565b5b92915050565b6000612c1d82611d3c565b915060008203612c3057612c2f61223a565b5b600182039050919050565b7f537472696e67733a20686578206c656e67746820696e73756666696369656e74600082015250565b6000612c716020836122b1565b9150612c7c82612c3b565b602082019050919050565b60006020820190508181036000830152612ca081612c64565b9050919050565b7f416464726573733a20696e73756666696369656e742062616c616e636520666f60008201527f722063616c6c0000000000000000000000000000000000000000000000000000602082015250565b6000612d036026836122b1565b9150612d0e82612ca7565b604082019050919050565b60006020820190508181036000830152612d3281612cf6565b9050919050565b7f416464726573733a2063616c6c20746f206e6f6e2d636f6e7472616374000000600082015250565b6000612d6f601d836122b1565b9150612d7a82612d39565b602082019050919050565b60006020820190508181036000830152612d9e81612d62565b905091905056fea2646970667358221220f4de19346a3471bae2f9f10e25ea7b7ecea544892d71cd4349374b7d410fd29c64736f6c63430008110033",
  "linkReferences": {},
  "deployedLinkReferences": {}
}